:020000041100E9
:10300000F7B5164B0192C318021D002000938823C8
:103010005B05D3181B685C1C1AD09CB2402C18D8D6
:103020008D781E0CAC466746CD782D023D43AE42EE
:1030300006D1019800280ED110000C70240A4C70A3
:1030400003249BB20733A343D218009B9A42DED3DA
:10305000FEBD4432F9E71000FAE7C046FC0F00005D
:10306000802213B503000324019189B25201073174
:103070009B18A14304305A1A88235B05C3181B68A8
:10308000591C03D190429241104016BD99B240297B
:1030900007D80B000733A343C0189042ECD300209D
:1030A000F3E74430F9E7134B134A1B68126810B575
:1030B000FA24934201D81A00F824104BE4021B684A
:1030C0009A4210D813000E4A12689A420ED3013366
:1030D00007D1F823DB029C4203D10A49054808F0D6
:1030E000BBFE200010BDFC24E402ECE7FE24E40259
:1030F000F7E7C04600C0071100D0071100E0071134
:1031000000F00711FFFFFF7FF0B59BB015000390A3
:103110000491402A5CD806AC61802280FFF7C3FF8F
:10312000002221000600FFF76BFF05280FD9238836
:10313000AB420CD1002D07D0504B2A000399C01888
:1031400008F092FE002802D101201BB0F0BD2580BE
:1031500030000699FFF784FF041E79D1069B079380
:10316000FFF7A1FF80235B01C618802307001B0324
:103170009E4201D1F826F60288235B05F3180193DD
:103180001B68013302D0019808F026FD3C490198E4
:1031900008F062FE3B1D0293331D05938822029BBB
:1031A00052059B181B6808935A1C13D188235B0592
:1031B000FF1839680198013908F04EFE380008F010
:1031C0000BFD30000799FFF74BFF0400002C41D1A5
:1031D0000020BAE744219AB20091402A04D8032083
:1031E000D11D814389B2009104991B0C8B4224D0DC
:1031F000402A22D80122300008A9FFF701FF021E51
:103200001BD1380008A9FFF7FBFE04000428DDD914
:10321000009A059B9B1880225201B21893422AD231
:1032200088235B05C118009A09A808F025FD134BF7
:10323000009A09A9F01808F027FD009A029B94460D
:10324000634402930F4B029AFB189A42A6D3ADE750
:103250000428BDD088235B05E018069908F0FCFD22
:103260000323EA1C9A4300D16EE7044B0399E0184C
:1032700008F00AFD68E70424ECE7C04604000011EA
:10328000FFFFFF7FF80F000073B504001600402A0F
:103290001ED801AD6980FFF706FF002229002A80B1
:1032A000FFF7AEFE042810D92D88002E0BD0002C7D
:1032B00009D0321CAE4200D92A1C074B92B2C11869
:1032C000200008F0D9FC28B276BDC04300B2FBE76D
:1032D00003204042F8E7C0460400001137B504223D
:1032E00004000D0001A81649FFF7CEFF02000428D4
:1032F0000BD1019BA34208D3AB4204D0104901A8D3
:103300000195FFF701FF01203EBD0E4C2368200010
:10331000019308F061FC019920000139019108F046
:103320009BFD80235B01E418074B9C42EED10422F5
:10333000034901A80195FFF7E7FE0020E4E7C04636
:103340005555000000C0071100000811F0B589B004
:1033500008F0EAFC10226946264808F09DFB264B3F
:10336000009A6C469A4211D1019B0F2B35D80699D1
:10337000029A8C4618001100002604AD013808D2CC
:10338000002E01D00A00A16001322FD10023A360DA
:1033900023E04F1CF2D161460126EFE710361022E0
:1033A0002900300008F078FBA368A868013300D139
:1033B000A060882329685B05C9186B6829601A0317
:1033C000120B6A60814203D03B4201D108F054FCE9
:1033D0006368013B6360002BE0D1A368002B03D03E
:1033E000049304984168084709B0F0BDE027014EF6
:1033F0003F03F0E700000111504859368022F8B52C
:10340000964C974BD200002120001C6008F004FC71
:103410002300944A88331A60934B1A786A23002A4F
:1034200000D01133E3620A232365904B37221B78C7
:103430000820A3638E4B2118E361102323628D4B78
:103440003B256361C823DB00A36123008C331A6032
:103450002823013AE26320646364CA67043A211DA9
:10346000CA672100BC310D602100C0310860210015
:10347000C4310B6021000635CC310D602100083DC0
:10348000C8310D602100D0310A602200D4321060B2
:103490002200D832136022000227E0322100176098
:1034A0004222DC310A6021001B3DE4310D60210025
:1034B000E83108602100EC310B6023000521F43372
:1034C00019602300F0331A602300183290331A6019
:1034D00023009433186023001E3A98331A60AF23F8
:1034E000DB002360644BFA262363644B644DE36086
:1034F000644BF031A3642300FF31FC33B600A160BC
:1035000021611E60A5627325E5656D3D6565A56554
:1035100096255D4AAD00E264666258606766A566FE
:1035200000270925A767E566584F594D60672000B9
:103530002567E2673A6015279C30676007001A200C
:1035400038602000A0300700212038602000A8301B
:1035500007004C4838602000F830066026006427D9
:10356000A436376026005F3FAC3637602600033F45
:10357000B03637602600C637B436376026000027DD
:10358000B836376038269E60424E96205E64424EC2
:103590005A66DE61414E9A645E62F53EFF3E9E626F
:1035A0001E269A67354A8000DE661F675F67DD6505
:1035B0001D661862DA67BE23394A5B00E250394B58
:1035C000D838235004302250C4225200A350C623BE
:1035D000E4205B00E1500433334AE1503349344B7B
:1035E000D1603449800019503349E938FF38195007
:1035F00032490430195032493248D161324911639D
:10360000324951631900F4310860CE20304940003E
:1036100011603049195019002F48F83108602F49BE
:10362000D16582212E4A89005A501A002D4908324C
:10363000D1671A002C49B432116088212B4A8900C5
:103640005A501A002A49883211602A4ADA6408F06E
:103650005BFB012008F058F9F8BDC0460004FF1FCD
:10366000D866FF1FA071FF1F6B42FF1F4A0AFF1F92
:103670003A07000080C3C9019A020000DC0500007F
:103680006A18000050C3000088130000F009FF1FF3
:10369000204E00006509FF1F68100000C4090000EB
:1036A00040420F0010270000FC00FF1FA91CFF1F55
:1036B0000000FF1F012DFF1F8930FF1F212FFF1F5B
:1036C0006920FF1F6127FF1F8520FF1F3522FF1F75
:1036D000F51FFF1F8529FF1F6D2AFF1F8D19FF1F73
:1036E0009128FF1FBD25FF1FC925FF1FF51EFF1FC6
:1036F000AD1FFF1F6D1EFF1FF7B5002203780400EA
:10370000013B0092012B0ED9F7BD6368009A2B4D47
:10371000995C0B09012B0BD1294A11702B70009B6E
:103720000133DBB20093237A009A9342EDD8EBE7A2
:103730002A78002AF3D0501C834201D00023EDE701
:103740001F48DBB2019081542B700E2BE7D100276C
:10375000019BDE5D632E16D96421300008F004F968
:103760003030C1B2012007F00DF90A21300008F015
:10377000FBF80A21C0B208F097FA3031C9B2012033
:1037800007F000F901E0092EEFD80A21300008F017
:103790008BFA3031C9B2012007F0F4F8013720214B
:1037A000012007F0EFF80E2FD2D10D21012007F0F4
:1037B000E9F80A21012007F0E5F8BFE75C42FF1FA6
:1037C0005D42FF1F30B587B002AA1100064B31CB16
:1037D00031C11B680B60012102980091049A039982
:1037E00007F094F807B030BDACBF00110223F0B56C
:1037F0000124684D91B02B70674B684E1C70684F68
:1038000003933368210008207B7006F043FE0021FB
:10381000082006F091FE082006F01CFE00239842C6
:1038200005D07A78552A02D0332A00D09FE0336041
:10383000072007F0D3F808F007FAFFF7DFFD08F0DC
:10384000E3F81F2201240021564B1A70564B1C70BE
:10385000564B1970564B19689143163A0A431A6031
:10386000602219689143403A0A431A6008F024FA2A
:1038700008F03AF84F4B9847C120FF214E4B80008B
:103880001A588A431A50C522920098588843BF3963
:10389000014399509858494908408021C901014382
:1038A000802099509958C0050902090A014399508E
:1038B00080214348490108F037F803232200414999
:1038C00001940093404808F05FFA2C223F4905A874
:1038D00008F0D2F905AC6178207806F0DBFD0234FF
:1038E00010AB9C42F7D13A4C3A4B226803201A4065
:1038F000A023DB0213432360802322689B0413432D
:1039000023602268344B1A4080239B0313432360B7
:10391000324A334B934200D8012008F045F808F0B2
:103920004BFA80232268DB0413432360287808F0D5
:1039300083F9039B1878C0B208F056FA08F054F9DE
:103940002849042008F010F906F0C6FE00F04EF8F1
:1039500000F070FDFFF736FF234D2C78002C12D1BC
:1039600000F010FE00F098FB200011B0F0BD0093B5
:1039700021001C4A042008F027F88023DB059C6204
:10398000FFF7E4FC54E721000120013506F0FAFFBF
:10399000E3E7C0464A0AFF1F6B42FF1F34F00040B6
:1039A0005460FF1F480AFF1F490AFF1F680AFF1FD4
:1039B000BCF00040E1A2000000E100E0FF00FFFFDA
:1039C0006C42FF1FF054FF1F6C52FF1FBCBF001161
:1039D00014F00040FF7FF8FFFFFF9FFF0080FF1FF4
:1039E000A071FF1F3B00010868BF0011002210B545
:1039F0001100112008F0B0F810BD0000F8B5002348
:103A00000926374F374C3B62E3681120B343E3602C
:103A100008F09AF8112007F05FFF112008F00CFA67
:103A20004023226880251343236080236268DB02E1
:103A300013436360A3682C4A2B43A360A36802214D
:103A40001340A3608023A2689B0113431022A3604C
:103A5000236C072093432364236C0F3A134323649E
:103A600080235B003B62226B204B1A402263626B17
:103A70001A406263A26B1A40A263E26B1340E363D5
:103A8000E3681B4A1340E36006F004FD01210720B0
:103A900006F080FD174B11205A6C15435D6408F049
:103AA00033F8FD21144B154A89005A508023C72052
:103AB000626B5B0313436363E36880003343E3603B
:103AC0000F4B104A19581140802212020A431A5013
:103AD000802292051A6008220B4B5A63F8BDC0463B
:103AE00000F000403CF00040FFFFDFFFEFFFEFFF82
:103AF000FFFF7FFF003800400000FF1F5118FF1F2D
:103B000000E100E0FF00FFFF00000540E12010B5EC
:103B1000C00408F0D9F810BD70B51A4CE388002B2A
:103B20002AD0FA22D200934201D2FFF7EFFF236896
:103B3000E088A688C0188023711C89B2124D2060CD
:103B4000A1809B00994218D3420A93B2C21AEB801B
:103B50002260A6800D4A642093420AD8FA220020EF
:103B6000D200934205D90A21180008F0DDF9C838BF
:103B7000C0B200232872E38070BD07F0F5FE83B267
:103B8000EB80E7E7685FFF1F3460FF1FB70B0000A3
:103B900030B503A804880B20002C0ED14968074DCE
:103BA00008784978090201430A20A94205D1012178
:103BB00020001980024B1B7A137030BD192A0000B7
:103BC0003460FF1FF7B5150008AA16884A680F4F22
:103BD00014785278120222430A24BA4214D10122E4
:103BE000DBB2019200962A0007F010FE041E0BD1F2
:103BF000074B1B68002B07D068782A780002104317
:103C000042425041013098472000FEBD0229000089
:103C1000785FFF1F30B5012503790400BFB02B4248
:103C200011D00A49408807F061F928420BD0084BAF
:103C300001A95B8D4D800B80064B00221B7A6088AA
:103C40000B7104F0F7F93FB030BDC046705FFF1F45
:103C5000C03EFF1F3460FF1F10B50549054807F03F
:103C6000FBF80421044A054807F0B8F810BDC04627
:103C7000705FFF1FFFFF0000E8BF0011C03EFF1F85
:103C800010B5024805F05AF810BDC046153C0011A9
:103C9000F0B593B005921F00DAB20F239B1ADBB286
:103CA00002930E239B1ADBB204931C9B049A023BE3
:103CB0005B0806AC199DDB00134303903A000191A9
:103CC000601C0599237007F0D7FF230000222C0009
:103CD0000299013B8A4250D1002C00D0BCE0102256
:103CE00021000AA80AAE07F097FF330006A81A7849
:103CF000215C01344A401A700133102CF7D10AAA12
:103D00001100019807F028FE2022212006AB9B1805
:103D1000049A05991A7006AB3A00C01807F0ACFF78
:103D20000EAB781C0021029A181807F075FF2F219E
:103D3000012306AA521813700494002D22D12B00DF
:103D400029000EAA0298013A834200D080E001982F
:103D500006AA0EA907F000FE06AA3378525D0135C7
:103D6000534033700136102DF6D11C9A1B980AA9C6
:103D700007F082FF002013B0F0BD01321C74D2B2F4
:103D8000240AA5E72C00102D00D9049C039B002BCE
:103D900019D106AF1900049A380007F03DFF220040
:103DA0003800189907F068FF039B0AAA1178F85C9D
:103DB0000133414011700132102BF7D10AAA1100D2
:103DC000019807F0C9FD06AF3A0001980EA907F067
:103DD000C3FD0023189AF95CD25C4A401A99CA5470
:103DE00001339C42F6D1039B012B19D110220021F3
:103DF000380007F011FF220038001A9907F03CFF45
:103E000000230AAA06A811781F5C013379401170BB
:103E10000132102BF7D10AAA1100019807F09CFD7E
:103E200000221A9B2D1B1B191A93189B0EA91B19F4
:103E30001893029B9A4200D17FE7CB7B0139013373
:103E4000DBB20B74002B00D077E70132D2B2F0E77F
:103E500001331174DBB275E7012040428BE70000AB
:103E600010B5134A134B5179134C19701179200076
:103E70005970D17899709178D970517812781971F8
:103E80005A712E2252429A712A32DA7145321A72CE
:103E90000A49313AFFF7F8F9102808D0102120001C
:103EA00007F0EAFD102220000449FFF72DF910BDAC
:103EB0006509FF1F8C5FFF1F7C5FFF1F0DBC0000AB
:103EC000F0B5431805000020114F124A3E8889B012
:103ED0000C00114956720792320A4A70320ECA70AB
:103EE00088701E70042639889870090A5970D87035
:103EF0009B19039301940D230849079A0496029590
:103F00000095FFF7C5FE0834E0B209B0F0BDC04629
:103F10003460FF1F8C5FFF1F955FFF1F7C5FFF1FDB
:103F2000012202700C4A0300117A41700C20987033
:103F30009179D970D17919713A21597192789A7120
:103F40003E22DA71054A117B1972517B5972917BBD
:103F5000D27B9972DA7270473460FF1F4060FF1F96
:103F600070B51F4A1F4BD17C04001B681E4A0029F4
:103F700006D1190604D50323137000F039F870BD7B
:103F800000211170022219002270013A627005327C
:103F9000A27010322271443A62712A32A271243224
:103FA0001140134210D0250041230835E371280049
:103FB000FFF7B6FF0C212800FFF782FF0430C0B2E4
:103FC000E0700430C0B2DAE740232000E371074B11
:103FD00021721B880A306372FFF7A2FF1220EFE7FD
:103FE0004060FF1F5860FF1F5262FF1F3460FF1FB9
:103FF00010B5040006220E4907F03EFE16220D49B8
:10400000E01D07F039FE0C4B1B789B0963770B4BC7
:104010001A7A0023502A06D840333C2A03D840336A
:10402000192A00D84033A37100231F20A37710BDA5
:1040300000C00011BB5FFF1FB55FFF1F3460FF1F93
:1040400010B5142007F058FE124B142200211860FE
:1040500007F0E2FD002007F09FFE012007F044FF7B
:10406000022007F0B9FE032004F00AF9042006F04C
:1040700023F9052003F042FB062004F015F8072081
:1040800001F080F9082006F089FE092000F0D6FE34
:1040900010BDC046D45FFF1F07F00EFF002007F0E1
:1040A00093FD07F021FD0000094B10B50400984274
:1040B00005D0012904D12000064906F0CDFE10BD2F
:1040C0000229FCD1013904F0F3FD0028F3D0F6E712
:1040D000FEFF0000FA5FFF1F70B50D7A100004AA02
:1040E0002C00168810221440154220D1002E20D119
:1040F0000A78022A18D14A68517815780E4A0902BE
:104100002943914205D00D4A914209D01C800A24CE
:1041100004E014220A491A8007F0AEFD200070BDA9
:104120000C2208491A80F7E71C800124F6E70824CE
:10413000F4E70B24F2E7C046F3FF0000F4FF0000B1
:104140008C40FF1FA8C0001110B5040007490848A3
:1041500006F082FE074804F02DFD0020E40704D598
:104160000721054A054806F039FE10BDFA5FFF1F1A
:10417000FFFF0000A940001130C00011043FFF1FE5
:1041800010B50B4BBEB01A780A4902A800F0B6FA77
:1041900001AC80B26080002808D0074B00221B8849
:1041A00021002380054B188803F044FF3EB010BD6A
:1041B000D85FFF1FD95FFF1F5E3FFF1F6040FF1FDB
:1041C00010B50B4BBEB01A780A4902A801F09EFB4D
:1041D00001AC80B26080002808D0074B00225B8DC4
:1041E00021002380054B188803F024FF3EB010BD4A
:1041F0000260FF1F0360FF1F043FFF1F6040FF1F9F
:10420000F7B50E00377A1C0008AB11003D001A8884
:1042100020231D401F423CD13378022B3BD17368D1
:104220001F785B781B023B431E4FBB4208D01E4FDA
:10423000BB4214D01D4DAB4221D00A252800FEBD43
:10424000002A2AD1142C2AD82200F06807F014FD85
:10425000174B1C70012CF1D9FFF7B2FFEEE7002AD3
:104260001BD1202C1BD82200F06807F005FD114B54
:1042700004211C70104B187807F05EFBDEE7E3B2F8
:104280000124009201940A00310007F0BFFA0500F2
:10429000D4E70825D2E70125D0E70B25CEE70D2589
:1042A000CCE7C046F3FF0000F4FF00000229000045
:1042B0000260FF1FD85FFF1F7460FF1F332310B51C
:1042C000040003700A220749013007F0D5FC064BB1
:1042D0000F201B681A0AE37222731A0C1B0E6273FA
:1042E000A37310BD3460FF1F6460FF1F30B501254C
:1042F00003790400BFB02B4213D00B49408806F06D
:10430000F5FD28420DD0094B01AD1B8802A82B807A
:10431000FFF7D4FF0F236B8000222900608803F091
:1043200089FE3FB030BDC046FA5FFF1F5E3FFF1FF2
:1043300010B5024804F002FD10BDC046ED42001168
:1043400070B5160004AA148805AA15784A68507832
:10435000117800022A4A0843801805284BD807F034
:1043600093FD03131E29343F0720042C0BD805228C
:10437000121BAA4200D92A0022491A8030000919CA
:1043800007F07AFC002070BD0720112CFBD8122208
:10439000121BAA4200D92A001B491A80EEE7072007
:1043A0000E2CF0D80F22121BAA4200D92A0017495E
:1043B0001A80E3E70720032CE5D80422121BAA4247
:1043C00000D92A0012491A80D8E70720032CDAD82E
:1043D0000422121BAA4200D92A000E491A80CDE7F6
:1043E0000720042CCFD80522121BAA4200D92A008C
:1043F00009491A80C2E700220A201A80C3E7C04692
:10440000DCD5FFFF7CC000112060FF1F6CC00011D5
:1044100067C0001162C000115CC0001110B50D2111
:10442000024A034806F0DAFC10BDC04650C0001135
:10443000743FFF1F10B5084CE368002B08D18022A1
:10444000064B52021B689B186360054B1B68236078
:1044500007F03AFBA06010BD6460FF1FC8F0004089
:10446000CCF00040F0B5184A936A916A9942FBD1AA
:1044700016498A689A421FD39A1A8B60144B4C686B
:10448000186893B2D2024343D20E42431B0A086813
:104490001B1912029B180024020001270D4D4B60CE
:1044A000561CAB420BD8002C01D010000CC10A4A9C
:1044B00013600A4B1860F0BD581E821ADDE7084AE7
:1044C0003C009B183200EBE700F000406460FF1FE7
:1044D000140AFF1F40420F00C8F00040CCF000401B
:1044E000C0BDF0FF70B51E4C23793F2B01D93F238F
:1044F00023711C4A13701078C0B207F0FDF918231D
:10450000194A1A4913801A4A0B8013804B80A079EC
:104510000C3B421C53438022120193421ED81A00C6
:10452000144D888028801448CB8002806279002A4C
:1045300001D101326271237A012B01D80223237247
:1045400053430E480A21584307F0EEFC0C4D2860F7
:10455000E379052B01D81023E37170BD1300DFE769
:104560005860FF1F480AFF1F5E40FF1F0842FF1FE1
:104570005C40FF1F5A40FF1F5840FF1F71020000A0
:104580004060FF1F70B521210020FEF7A7FE0C4CF4
:10459000002805D10B4B23CB23C4FFF7A3FF70BD2D
:1045A0000C2220000849FEF76FFE0C2802D0054BB4
:1045B00023CB23C41C2205490548FEF765FEECE722
:1045C0005860FF1F9CC00011FC0C0000D1F10000DE
:1045D000B55FFF1F10B50C2202480349FEF794FD9A
:1045E00010BDC0465860FF1FFC0C0000F0B51D4C0C
:1045F0008022A5440400882069465201400507F046
:10460000B3FB902212016A441300200032C832C367
:1046100016C816C38023144C144FA6689B0333435B
:10462000A3603B6007F020FA8823A0685B05C018F0
:1046300007F0D2FA0025882329008022A0685B05B4
:10464000C01840196944520007F01EFB8023013551
:10465000FF355B019D42EED1A6603E60044B9D4458
:10466000F0BDC046FCEFFFFF7C41FF1F9808FF1F15
:1046700004100000F0B587B0051E6C4627D06846D0
:1046800007F062FC1B4D022806D10622694628006D
:1046900007F0EAFB002818D00F2221000023012098
:1046A00094460600EA5C013317091037BE40370014
:1046B000664632400600964032003A434A61043969
:1046C000062BEED12000FFF791FF07B0F0BD1822B6
:1046D0006946094807F048FBAB00E358013305D0B1
:1046E0001822FF21200007F097FAEBE70135062D8D
:1046F000F2D1EAE76509FF1F000900110023F0B5B8
:1047000085B004000E00150000939A4200D1CAE162
:104710008A784B1C01934B7812021A43CB780F789E
:104720001B0413430A79077012061A430023390049
:104730004370C0480092039201F026FC232F41D819
:10474000172F1DD8002F00D183E0B81FC3B20B2B49
:1047500028D9012F3ED1AB1EB74F132B07D8737842
:10476000002B00D0DBE100F0C9FA00F0FFFAB34BF8
:1047700039001B78601C5A1E009307F07DFA92E105
:10478000380018380B28E4D807F096F98800AF00F5
:104790002B01E3FFE3FFE3FFE3FFE3FFE3FFE3FFBF
:1047A000E3FF90010B28D4D807F086F92E012701EA
:1047B000D3FFD3FFD3FFD3FFD3FFD3FFD3FFD3FF69
:1047C0009201B201562F63D01FD8332F00D166E17A
:1047D000552F46D0DB2F00D0B0E1042D00D881E06A
:1047E000052D00D1A7E16F1F3A000098711D07F059
:1047F00043FA05223100200007F03EFA3A00009902
:10480000601D07F039FA00954DE1712F00D102E1EA
:10481000722F00D13AE1DC2FDCD1022D62D97378FE
:104820006370B378A3706B461F88032D05D0033DDA
:104830003900AAB2F01CFEF767FC10223900E01C18
:10484000FEF722FDC31C0093002800DB2BE1607003
:10485000CEE00C2220007A4907F00EFA0C230093D8
:1048600021E16A1E774D0C2A10D8002A07D02800B3
:10487000019907F001FAFFF735FEFFF7ABFE0C22B6
:104880002900601C07F0F8F90D23E8E70C22EEE799
:104890006C4D6D4B2A0043CB43C2ECE76B4E112DA0
:1048A00012D110223000019907F0DEFA00280BD057
:1048B00010220199300007F0DFF91022644930001E
:1048C000FEF722FCFFF7CCFA102230006049FEF719
:1048D000DBFC0200102805D13100601C07F0CCF988
:1048E0001123BCE7FF23637082E0102D53D177784A
:1048F000032F0DD1574D0E22B11C280007F0BCF933
:104900000E222900A01C07F0B7F967701023A6E754
:10491000042FE7D1504DB11C0E22280007F0ACF94E
:1049200029000E22A01C07F0A7F94A4D4B4E1C226D
:104930002900300007F098FA002829D01C2229000D
:10494000300007F099F91C2230004549FEF7DCFBE6
:1049500040232A785B421343290028002B7000F083
:1049600035FA404E06222900300007F07DFA002873
:104970000ED006222900300007F07EF906223A49BF
:104980003000FEF7C1FB0123384A11780B43137046
:1049900004236370BAE7022DA4D17678012E10D1DA
:1049A0002E4D1C2228002E49FEF76EFC1C2806D135
:1049B0000E222900A01C07F05FF96670A6E7FE230F
:1049C00091E7022E8ED11C2224482549FEF75CFC7B
:1049D0001C28F4D10E222649A01C07F04DF9657061
:1049E00094E7022D06D17378002B03D101F0A0F9D2
:1049F000022334E701F08AF9FAE712221D49601C0C
:104A000007F03AF913232AE708221B49601C07F034
:104A100033F9092323E7012D34D07178F02900D927
:104A200060E7164D288801F0A3FE154B2A88520036
:104A3000D35A58E775BF00115562FF1F5362FF1F1D
:104A4000A8C000115860FF1F9CC000117C5FFF1FB1
:104A50000DBC0000995FFF1FA75FFF1FB55FFF1F21
:104A6000D1F100006509FF1FADAC00005460FF1FCD
:104A7000C35FFF1F2060FF1F8041FF1F6040FF1FBB
:104A8000DC66FF1F3F4A404B1288D0E73F4B012DA9
:104A900003D072781A706270AAE71B7823E72000AF
:104AA000FFF70CFC0090009805B0F0BD042D05D96F
:104AB000374D009B2B6007F007F8A860FFF7D2FC8A
:104AC0000422039003A9601C07F0D6F80523C6E66C
:104AD000304E062D15D906223000019907F0C4F991
:104AE00000280ED006220199300007F0C5F80622F2
:104AF00029493000FEF708FB0123244A11780B43B3
:104B0000137006223100601C07F0B6F80723A6E6F2
:104B1000012D00D1E6E67078FFF7ACFD68E7013DB6
:104B20002A000199380007F0A7F838001B49AAB2FB
:104B3000FEF7EAFA19E6152510275AE6DA2F00D013
:104B4000D0E6042D00D8CDE6082D17D9B3797279B7
:104B50001B021343F27912041A43337A1B061343E0
:104B6000009A1360009B05221B683100200003930C
:104B700007F082F80422601D03A948E7FE23637052
:104B8000F0E7C0466040FF1FDC66FF1F5460FF1F58
:104B90006460FF1F6509FF1FADAC0000AEDE0000C2
:104BA00070470000020010B5094B0A32094C92B25E
:104BB000DA815A8298811882207802F03DFC042222
:104BC000054B012120781A7006F0B6FE10BDC046D4
:104BD0000C41FF1F9E62FF1F9D62FF1F013870B5D1
:104BE000042809D807F050F9030927081200204BC0
:104BF0000221187806F0A0FE70BD1D4B0821187820
:104C000007F04AF900221B4B1A74F5E780220024B2
:104C1000184B52001A82FA22DC74174B144D5B7A3F
:104C2000920008215A43287806F076FE2100287861
:104C300007F092F8E0E70E4B0821187807F02CF9FE
:104C40000E48FFF78DF90C4B0D4A9B7993800D4A66
:104C500013800022074BDA740132FF321A820A4BAA
:104C60001B78002BC8D0094A136007F015F8C3E77A
:104C70007460FF1F4060FF1F5860FF1F6940FF1FE7
:104C80000842FF1F5A40FF1F5460FF1F34F00040CE
:104C900010B5012906D1082804D1034B7F311878BB
:104CA00006F04AFE10BDC0467460FF1F10B5002913
:104CB00006D1082804D1034B8031187806F03CFE59
:104CC00010BDC0467460FF1F0300F0B50A4D8E187A
:104CD000B14202D152008018F0BD0C782F6824092F
:104CE0003C5D0F271C700C7801313C402F683C5D07
:104CF0005C700233ECE7C0465440FF1F0E22124B9B
:104D000010B51A700D23114C11492370093A043B58
:104D10001048637006F0B0FF2D2301220E490F48A2
:104D2000E371FFF7D1FF01220D49FFF7CDFF01220B
:104D30000C49FFF7C9FF030000200B49020018705F
:104D4000FEF7E2F910BDC0467262FF1F5362FF1FFB
:104D50007CC000115562FF1F6709FF1F5B62FF1FC8
:104D60006609FF1F6509FF1FAEDE000070B5134C1A
:104D7000142220001249FEF787FA431E114D132B0F
:104D800019D8AB78002B16D0431C2B7009236B70FD
:104D900000230019037028780B4B01302900C0B2A2
:104DA000187006F0A1FF297822000139C9B200204D
:104DB00005F032FF70BDFFF7A1FFECE75562FF1F62
:104DC000AEDE00005362FF1F7262FF1FF0B54A782B
:104DD0004F790E79CD788C780B7807704670857096
:104DE000C47002714371F0BD10B5114B1A78187080
:104DF000002A0ED000280BD10E4B1A78062A07D8AD
:104E00005423D340DB0703D50B4B187802F014FB77
:104E100010BD0028FCD0074B1B78012B02D0033BB0
:104E2000022BF5D8044B0121187806F085FDEFE739
:104E30007662FF1F9D62FF1F9E62FF1FF7B55C4CED
:104E400000212070012005F077FB5A4A5A490820BA
:104E500005F020FCFA22802192008901207806F0DA
:104E60003BFF06F091FE032254495548FFF72CFF03
:104E70002D25030088211D70042249050130FFF70C
:104E800023FF302305704F4E4F4D437083702E3BF0
:104E9000062230004D49EB87FEF7F6F9062813D0BD
:104EA000300007F051F8022809D00321300006F045
:104EB000E3FD8D23F3706E3B33711933737106225A
:104EC00030004249FEF720F9414B1B68FC335E6419
:104ED000FFF74CFFFEF7C4FF0020FFF785FF3D4EB4
:104EE000802231683C4F080001973C4B3C4F1040FA
:104EF000114254D07D3A01981A70FFF779F8387052
:104F00003A78384F01213878019B02F057FA364A37
:104F1000364B12783878002102F050FA0122344BD7
:104F2000344F1A70344B5B78552B3AD1193B7B7454
:104F3000324A334BAB81EA812B826A82202120786E
:104F400006F032FF0120404205F0B2FE012040424F
:104F500005F04EFFFFF762FAFEF77EFE00F070FFED
:104F6000284800F0BFFF01204042FFF7EDF8012084
:104F700006F042FFF02001F0DFFB0121207806F06F
:104F8000DBFC207802F0B4FB1F4806F0D5FDFEF7ED
:104F900035FD1E4B1E4A9B689B18BB60F7BD187001
:104FA000AEE76422737953431A000A32C2E7C0465F
:104FB0007460FF1FAD4C0011914C00118041FF1F28
:104FC0002060FF1F6509FF1F0C41FF1FADAC0000F3
:104FD000D866FF1F5860FF1F6940FF1F5262FF1F06
:104FE0008840FF1F9E62FF1F7262FF1F5362FF1FF8
:104FF0004462FF1F4060FF1F5460FF1FCE09000086
:10500000C409000084BF00117660FF1F6460FF1FA9
:105010000000B8FCF8B50A0020230D001A40194220
:1050200000D16BE0894B1B78002B3DD0FFF71AFABB
:10503000874B884C884E99686268737A8A1ADB03BA
:105040009A4234D36160FEF7D9FC637C002B28D0F0
:10505000013BDBB26374002B23D1804B5B78552B73
:1050600001D106F019FEE37C7D4F002B32D0F3799D
:105070006374BB78002B14D1A27C002A02D0A374E5
:10508000FEF74AFD3B88774E013330003B80FEF748
:1050900067FF310006F008FD0023C820E374FFF726
:1050A00081FD237C0133237420206840F8BDA37C5C
:1050B000002BCAD00023A374FEF72EFD684A694F67
:1050C0001388380001331380FEF74AFF390006F0D9
:1050D000EBFCBAE7A27C002A02D0A374FEF71CFD09
:1050E0003B8801333B805F4F3800FEF739FF3900C2
:1050F00006F0DAFC642370795843D0E70BB2002B3A
:105100000ADA594B187806F017FE002801D006F08D
:1051100003FD80200002C8E70224214206D04D4B47
:1051200001201A74FFF760FE2000BEE780246400AF
:10513000214202D000F06EFDF6E70826314205D08C
:10514000FFF790F9FEF75AFC3000AEE7CB060FD51B
:10515000FEF7E2FC3D4B1B78002B07D1FEF790FDDC
:105160003D4B1B68DB0701D5FFF7E2F810209CE7F9
:1051700001240F002740214205D03C4800F0C6F82A
:1051800006F0D2FCD0E70B0644D5300005F062F9FA
:10519000334E00282FD1364800F0F6FE737A2342B2
:1051A00005D01A0001231343737280207DE7294B39
:1051B000717ADA6828480132DA600122114371728B
:1051C0002249B270097800291CD03188DA74013183
:1051D0003180C279234C5A741D4A264992682000B6
:1051E00052189A60FEF7BCFE210006F05DFCC82054
:1051F000FFF7D8FCD9E700F09BFD737AB770A343A3
:105200007372D2E703681342CFD0FFF72BF9FFF791
:105210008FF8CAE70424214202D0FEF7B1FF83E7EA
:1052200080246401214202D000F070FF7CE78024DA
:105230000800A4012040214200D137E7FA220A4B9E
:1052400021001878920006F047FD6DE77662FF1F97
:105250006460FF1F4060FF1F5860FF1F5460FF1F06
:105260003460FF1F6940FF1F7460FF1F4C40FF1F29
:105270008CBF0011000082FCF0B51A4B1A4F1B883E
:105280003A880400194E1A4D85B09A420DD83288DA
:105290009A420AD3174B1A882B889A4205D1164A8C
:1052A000164B12881B889A421AD0052001F09AFAF0
:1052B0003B8802A90B80338801904B802B88104DCE
:1052C0008B800E4B2A781B88CB800E4B188802F0FF
:1052D000BBFF0D4B08212878019A1C7006F0FCFCDE
:1052E00005B0F0BD4262FF1F5E40FF1F5C40FF1F24
:1052F0005A40FF1F4062FF1F3E62FF1F5840FF1FC2
:105300009E62FF1F6040FF1F3C62FF1F13B50C4BE6
:105310001C78002C11D1002801D00A4B18600A4AD1
:105320000A4B11780A4A10780A4A01920A4A0092F6
:10533000002205F069FB200016BD1124FBE7C046E2
:105340009D62FF1F3862FF1F9C62FF1F8C62FF1F60
:105350009E62FF1F7862FF1F7C62FF1F10B5064B25
:1053600012201B78052B06D1044B13221988044BFD
:10537000187801F013FC10BD9D62FF1F6040FF1FF5
:105380009E62FF1F10B500240122114B524218707B
:10539000104B1C70104B1A8002F0AAF904220F4B1C
:1053A00021001A700E480C3206F026FC1022210053
:1053B0000C4806F021FC07220B4B1C600B4B1C70A9
:1053C0000B4B1C700B4B1A700B4B1C7010BDC04666
:1053D0009E62FF1F9D62FF1F6040FF1F9C62FF1FB8
:1053E0008C62FF1F7C62FF1F7862FF1F5262FF1FEB
:1053F0005162FF1F6240FF1F5062FF1FF8B5174C3C
:105400000600257806A814240078052D23D1B41FA2
:10541000134FA5B21824BD421DD88D1FADB2BD4299
:1054200019D8FA256D00AA4215D21D000D4F0A3D6C
:10543000ADB2BD420FD80C4C26800C4C21800C49DB
:1054400000240A800B4A1380FFF716FF0A4B042141
:10545000187806F021FD2000F8BDC0469D62FF1FB0
:10546000790C0000750C00005E40FF1F5C40FF1FC0
:105470005A40FF1F5840FF1F9E62FF1FF0B50BB23E
:105480000D0089B0002B00DB70E1A44E307806F0EF
:1054900053FC041E50D00378A22B00D122E1D02B64
:1054A0001AD0912B45D143780E2B42D19C4B828848
:1054B0009A423ED19B4B1B78052B3AD1836803203F
:1054C00018567F2835D0984B1B68002B31D05B686D
:1054D000002B2ED098472CE08078072829D806F09A
:1054E000D3FC0428183F3F74A8D86378002B0CD154
:1054F00001218C4B19708D4B1A78002A5BD08C4B94
:10550000307801F05BFF002855D00722854B1A70D8
:1055100051E061780029F8D1E378002B11D0854A59
:10552000854B1278307801F049FF60706378002B6A
:10553000EBD1200006F0F0FA80200002684009B0AC
:10554000F0BD784B1B78022BF3D00121307806F0A8
:1055500043FA0028EAD10121307806F0EDF9E5E7B9
:105560006378002BD1D16F4F032807D13B78052BEF
:1055700002D101333B701EE00223FBE76F4B1A8818
:105580006F4B0293002A0BD01B78002B03D0012114
:10559000307806F0A1FB3B78062B04D1013BE9E70C
:1055A000029B1A70F7E7042B41D10121029B30784E
:1055B000197006F0C1F95C4B1B68002BB9D01B6851
:1055C000002BB6D0574A107884E76378554F002BEC
:1055D00027D10622211D5B4806F04EFB62895A4BFB
:1055E0005A491A80A2895A4B1A80E3890B800521F7
:1055F000397058490A80584A1380228A574B1A80BA
:10560000574B1B78012B09D11F2001F0EBF8FA2230
:10561000920042430421307806F05EFB0022484BA2
:1056200075E7312B00D070E70022454B1A70032339
:10563000A0E706220021434806F0DEFA0023454A8F
:1056400004211380444A30781380444A138006F0C2
:1056500023FC0821307806F01FFCA379083B5A424E
:105660005341304A03331370304B1B78002B06D064
:10567000334B30781A78002A06D001F0DDFE012283
:10568000314B52421A8096E70121197006F054F905
:10569000F5E70821307806F0FFFB6378002B00D097
:1056A00047E72C4B2D4F0293E388029A0421138085
:1056B000294B307803932389039A138063893B80B5
:1056C00006F08AF9002800D033E7264B1B68002B30
:1056D00000D12EE7039902983A88098800881B6850
:1056E000984726E74379132B00D022E70389012B43
:1056F0000AD11D4B1B78022B06D10821307806F009
:10570000CBFBFFF72BFE14E7052001F06BF8082117
:105710000200307806F0E0FA0BE7C0469E62FF1FF9
:10572000051400009D62FF1F3862FF1F8840FF1FA5
:105730006940FF1F7262FF1F5362FF1F7462FF1FE9
:105740007662FF1F4562FF1F6040FF1F4C62FF1F14
:105750004E62FF1F4262FF1F4062FF1F3E62FF1F3B
:105760004462FF1F3462FF1F3C62FF1F8020C001A4
:10577000014200D0E2E6CB0731D5324B1B78002B3B
:105780001DD0314E05AC3378052B1AD1023B237066
:105790002E4B21001B7823722D4B1B7863722D4BEF
:1057A000187801F0AFFD002809D007202A4B30708F
:1057B0001B68002B03D01B68002B00D098470120EA
:1057C000BCE60E20254B06221B7825492370254B6D
:1057D0001B78637002ABC01806F04EFAD8E70223BC
:1057E00008001840194209D0174B1B78052B03D12C
:1057F0001D4B188806F028F902209FE60424214258
:1058000003D0FFF739FD200098E608230800184070
:10581000194200D193E6154B1C78012C03D0022CC1
:105820000DD008208AE6124B124A134913481B88F0
:105830001288098800880094FFF7E0FDF1E7FFF780
:105840008DFDEEE77662FF1F9D62FF1F6240FF1F26
:105850005062FF1F9E62FF1F3862FF1F5262FF1FD0
:105860006340FF1F5162FF1F6040FF1F3C62FF1F2C
:105870005840FF1F5A40FF1F5C40FF1F5E40FF1F44
:105880000200F0B501270A480A4E51188B1A002B66
:1058900000DCF0BD0824157843086840384040001B
:1058A000805B013C58406D08002CF5D10132EDE7DA
:1058B000FFFF0000B4C00011F0B500250F269D4287
:1058C00000DBF0BD4C5D070944403440A400A05803
:1058D00001357840F3E7000070B50C0088B06B46E6
:1058E0000F2610340A7801311500120935401D7059
:1058F0005A700233A142F5D120236946024AFFF7CC
:10590000DBFF08B070BDC046B8C00011F0B54E78DE
:105910000B7889B036020C00170001901E43012A53
:1059200061D9954B9E4200D877E001339E421CD14D
:10593000062A17D1CA788B7812021A430B791B04F6
:1059400013434A7912061A438C4B5A6100221A708B
:105950005A808B4A5A608B4A9A608B4ADA600020E0
:1059600009B0F0BD88225205EEE7884B9E423CD13B
:1059700082498B78002B00D0F6E00C2A31D10F221F
:10598000A3789343E278120213432279120413435B
:105990006279120613434B60E279A0791202024346
:1059A000207A00041043627A12060243CA60E27A47
:1059B000A07A1202024376484A81834208D804231F
:1059C0006E49142201980B7006F056F91420C7E7AF
:1059D0001201D21889235B059A42F0D801238B70FB
:1059E000BDE7022AFAD00523EAE76A4A0123964274
:1059F000E6D1FFF7B3FC052F0CD9E378A2781B02A0
:105A00001343227912041A4363791B061343624A33
:105A10000393136006F040F9A1E7584D2B78002B53
:105A20009DD1AB78002B00D1A0E02B8901339BB234
:105A30000093B34200D091E0132AD4D9CF7C8B7C61
:105A40003F02122120001F43FFF71AFF874200D0B8
:105A50008EE0002E3DD1E378A2781B021343227919
:105A6000E96812041A4363791B06134303930A225D
:105A70008B4212D1FF23A370E370237163716B8992
:105A8000002B09D1E37B227C1B0212041343A27B6F
:105A900013431B0901336B8100226B89002B8ED0CD
:105AA000002A67D1686837013818000B6B6900035A
:105AB0000390984205D9686106F08EF8EB780133BF
:105AC000EB7068681022A11C381806F0DDF82E81F2
:105AD00045E76F89009A7B1E9BB293423AD1E278E8
:105AE000A37812021A43237905A81B041343627991
:105AF0006C6812061A43EB6800920392211D0C2277
:105B0000049306F0B9F80120260004A9404210369B
:105B1000FFF7E2FE013F012F17D1009A0B23286106
:105B2000824200D04CE704221C49200006F0ACF869
:105B3000042203A9686806F017F9E968039AFF23AD
:105B4000914200D13CE7F73B3AE73100FFF7C4FE52
:105B50001036DFE70923B742A4D831E7009BB342F0
:105B600000D9FCE607232BE7022329E7032327E7D5
:105B7000062325E70A2323E7FFFE00008C40FF1FD2
:105B800000000111FFFF00005048593601FF0000DE
:105B9000FFFF001102FF000034F000409840FF1F9B
:105BA0000121174BF0B51A68164C8A431A601A681F
:105BB0008606B60F2240340322431A601A68124C3C
:105BC000870922401A604022BA4032410F263040F5
:105BD00088400E4C12042568ADB22A432260226828
:105BE0000B4D120C405B12040243226080221868A5
:105BF000520202431A601A6811431960F0BDC04690
:105C000004E00040FF8FFFFFFFFFFEFF08E00040C1
:105C1000F8C00011F7B5364B364C01932388019A32
:105C20005B009D5C344FFF2D2DD10321162004F025
:105C300031FC0021162004F01DFC01212F4B122005
:105C40001A688A431A601A680F318A431A6005F08D
:105C50007BFF122005F0B0FF00233B702388019AE0
:105C60005B00D318372280215B7849005A43244BCC
:105C7000187806F031F8238801339BB2732B00D9D2
:105C800000232380F7BD3E78002E2DD13200310055
:105C9000122005F061FF122005F036FF122006F0F9
:105CA000CBF828001025FFF77BFF164B16491A6822
:105CB00016200A401A601A682A431A60802219685E
:105CC00012060A431A60310004F0E4FB0A21162090
:105CD00004F096FC0121094B1A680A431A601A68FD
:105CE00015431D603970B9E72800FFF759FFB5E784
:105CF00018C10011A062FF1FA262FF1F00E0004058
:105D00007460FF1F04E00040FFFEFFFF802110B51C
:105D1000054B4900187806F0BFF80022034B1A80A3
:105D2000FFF778FF10BDC0467460FF1FA062FF1F21
:105D300001210E4B10B51A6812208A431A601A68A6
:105D40000F318A431A6005F037FF122005F0FCFE80
:105D50000022074B032116201A7004F09BFB8021C0
:105D6000044B4900187806F097F810BD00E0004099
:105D7000A262FF1F7460FF1F37B5094D06AC24886F
:105D8000A94206D10125DBB20195009405F03EFD44
:105D90003EBD044B00209942FAD00A30F8E7C046D5
:105DA000F440FF1FC440FF1F70B5100004AA1688FE
:105DB00005AA15780A4A0A248A420ED10134002E17
:105DC0000BD1084A1278111CAA4200D9291CCAB268
:105DD0001A80054906F0A0F80024200070BDC046D6
:105DE000E440FF1FA362FF1FA462FF1F70B5104EA7
:105DF00004003378BEB0002B18D0012503792B4264
:105E000014D00C49408805F071F828420ED00A4B96
:105E100032781B8801AD094902A86A802B8006F000
:105E20007BF800222900608802F004F93EB070BDC2
:105E3000A362FF1FB862FF1FEE40FF1FA462FF1F97
:105E4000002210B5054B064906481A7005F004F803
:105E50000621054A054804F0C1FF10BDA362FF1FDB
:105E6000B862FF1FFFFF000000C20011A440FF1F27
:105E7000F7B506000D000120002E1AD0002918D019
:105E800000242B1B1F1CDBB2142B00D91427FBB2E0
:105E90003119FAB20748019306F03EF8064B07485D
:105EA0001F7002F04BFF019B1C19A4B2A542E8D859
:105EB0000020FEBDA462FF1FA362FF1FED5D001165
:105EC000002110B5435C002B07D001311529F9D111
:105ED0000139FFF7CDFF010002E0C9B20029F8D176
:105EE000080010BD012310B5002802D0FFF7E8FF1D
:105EF0000300180010BD0388FE2B03D85A1C028033
:105F0000C01881707047F0B589B01D000EAB1B78CA
:105F100000920F9A02930E0061230190D20700D5E0
:105F200041230024DBB20A3B039304AF3000009905
:105F300005F0BAFE039BCAB2D318A446DBB2013403
:105F4000092901D83032D3B26246D355009B9E4214
:105F50000CD22300A5420DD800249D4200D3EC1A98
:105F6000E418013C002C09DA09B0F0BD102CF0D087
:105F70000600DBE7029A3A550134EBE7395D0198F8
:105F8000FFF7B9FFEDE700000FB4F0B55B4A8BB047
:105F900007921278109B0692032A30D8584A12783A
:105FA00004928122049952004A435649059155189A
:105FB00000210598115211AA09921978002923D1BC
:105FC000812304985B0058434E4A825A049801305A
:105FD000C0B2032800D80100049843430598C318B1
:105FE0009B1800229A70464B079A19708021069BD5
:105FF000490101331370444B187805F09DFC0BB038
:10600000F0BC08BC04B01847252905D00133039320
:106010002800FFF770FF51E05C789A1C0392252C52
:1060200001D12100F4E72027302C03D12700DA1C0E
:106030009C7803920026039B04E00A214E431C78BF
:10604000961901332200303AD1B203930929F4D9C9
:10605000692C1FD00AD8632C4AD0642C1AD0582C33
:1060600041D025212800FFF746FFDAE7752C27D01D
:10607000782C2FD0732CF4D1099B1C681A1D09921F
:10608000002C1BD02178002918D028000134FFF7FC
:1060900032FFF7E7099B1C681A1D0992002C04DAED
:1060A0002D212800FFF727FF644200230A220193D5
:1060B0002100330000972800FFF725FF039B7CE7B2
:1060C00009990A220B1D09930023019333000097BD
:1060D0000968F0E709990B1D099300230193102229
:1060E00033000097F4E709990B1D09930123F5E7A5
:1060F000099B19681A1D0992C9B289E7C062FF1F7E
:10610000C262FF1FC462FF1F7460FF1F70B581264B
:1061100076000C4C2378002B00D170BD0A4D0B4B40
:1061200028787043C15A0230C018FFF7A1FE2B78BF
:106130000133DBB2032B00D900232B702378013B02
:106140002370E6E7C062FF1FC162FF1FC462FF1F2A
:1061500010B5034C0B000122210000F06BFA10BDBA
:10616000116300110B8870B506000D000224162B78
:1061700011D92B000322094900F05CFA041E0AD150
:10618000074B2A881B88191C934200D9111C300028
:1061900089B200F0EDFA200070BDC0463D630011E9
:1061A000DE66FF1F10B54A780400013A0B0002209A
:1061B000012A07D80A78002A04D0052220000249C3
:1061C00000F038FA10BDC0466B6300110A7810B5B4
:1061D0000B0004000220002A04D0072220000249FC
:1061E00000F028FA10BDC046176400110A7810B5F7
:1061F0000B0004000220002A04D0092220000249DA
:1062000000F018FA10BDC0467D64001110B5034CB3
:106210000B000B22210000F00DFA10BDAD6400113F
:1062200010B5034C0B000D22210000F003FA10BD45
:106230001F65001110B5034C0B000F22210000F068
:10624000F9F910BD796500110A7810B50B0004004A
:106250000220002A04D011222000024900F0EAF9AD
:1062600010BDC04689650011002310B51322190026
:1062700000F0E0F910BD000010B5034C0B00172230
:10628000210000F0D7F910BDDB650011002310B527
:106290001922190000F0CEF910BD000010B5034C12
:1062A0000B001B22210000F0C5F910BD156600117E
:1062B000F7B584890D0006000121002C22D00023AF
:1062C0008268D3561778002B1EDA0C2C1AD90C3C96
:1062D000A4B2131940880093230002F090FE431EDD
:1062E000984101307B06DB0F6B703F23013C1F4060
:1062F000A4B22870AF70AC80002C07D0B368013313
:10630000AB6000210800FEBD0020EBE7AC60F8E7C1
:106310000B7803704B8843704B881B0A83700B7992
:10632000C370042070470420022B06D1002053784C
:1063300011781B02009A0B43138070470B8803707F
:106340000B881B0A43700220704704200099834287
:106350000AD1537810781B0203430B80D3789078CE
:106360001B02034300204B807047F8B50D004B78AB
:1063700001240021461C03702B788B4201D8200099
:10638000F8BD6B78B01C4F1C012B10D18900691827
:106390004B88022233704B88B9001B0A737069184E
:1063A00005F0BAFD04360434A4B2F9B2E4E71223CE
:1063B00059436B185A88043132705B8810221B0ACB
:1063C0007370691805F0A8FD12361234ECE770B549
:1063D000049D14001E00052B01D8042070BD6378B5
:1063E00012781B0213432B80E378A2781B0213431D
:1063F00002226B802A71211D681D063E05F08CFD6E
:10640000B2B22A81E92AE8D82800A11D0A3005F095
:1064100083FD0020E2E7002310B50A789A4201D8F4
:10642000900010BD9A008A18548801330470548873
:10643000DBB2240A4470948884709288120AC27075
:106440000430EAE710B51100029C062B04D00420AA
:106450001022142B01D010BD022222714B78087833
:106460001B0203432380CB7888781B02034363809D
:106470000431601D05F050FD0020ECE710B50C78EC
:106480008B7804315C43E4B203702200013005F0E4
:1064900043FD601C10BD0420022B06D10020537860
:1064A00011781B02009A0B431380704710B50C0043
:1064B0000A88023105F030FD208810BD70B5040057
:1064C0000D0004981100012B01D8042070BD16782E
:1064D00052781202324302800200F1325570147079
:1064E000E125002C00D10C35023B9AB24280AA4231
:1064F000EBD80231043005F00FFD0020E6E7042060
:10650000009983420AD1537810781B0203430B8011
:10651000D37890781B02034300204B80704710B55E
:106520000C000A88023105F0F7FC208810BD00003D
:1065300070B501211E000420049C0E400B4218D1AE
:10654000CB40DDB28D4214D90A49DBB209889942A9
:106550000FD32300EE331D70330058001118497813
:10656000165C0902314301332152D9B28D42F4D86D
:10657000002070BD0641FF1F10B50C000A880231D3
:1065800005F0CAFC208810BD10B50C788B7804315A
:106590005C43E4B203702200013005F0BDFC601CD6
:1065A00010BD10B511000298032B01D8042010BDB6
:1065B00014785278043B120222430280CA788C7805
:1065C0001202224342809AB28280EB2AEED8043132
:1065D000063005F0A1FC0020E9E710B50C000B889F
:1065E00003700B881B0A43704B8883704B881B0A0F
:1065F000C3708A880430063105F08EFCA088043010
:1066000080B210BD0420012B03D100201378009A22
:106610001370704710B50C000B8803700B881B0AB1
:1066200043704A880230043105F076FC60880230FD
:1066300080B210BDF0B589B003931D4B02924200A9
:106640000700D05A019102F022F81325061E2CD023
:10665000029B01240370019B002B04D000190399B5
:106660009847001984B26B461B7A5BB2002B0FDA95
:106670001021380002F01CFB1925002812D130002F
:106680003219E1B202F070FC051E0BD10C34A4B239
:10669000042305A938000B800C814E6001F0B2FD87
:1066A000051E02D0300005F04FFB280009B0F0BDF8
:1066B000DC66FF1F70B505000C0000280CD0002020
:1066C000814209D010222000044905F025FC012058
:1066D0002B7823736B78637370BDC04644C200117E
:1066E000F0B506000D0017001C0085B002291BD074
:1066F0000020102907D1022B07D0102B03D115E061
:106700000020102C08D005B0F0BD69463800FFF716
:10671000D1FF2A0069460BE069463000FFF7CAFF47
:1067200022006946380004E0022BE9D12A00390032
:10673000300005F039FAE6E7031CF02800D9F02311
:10674000032008499AB2013A0B80D3170340064947
:106750009B189B100B80D30F04499B185B100B8078
:106760007047C0460A41FF1F0841FF1F0641FF1F37
:10677000034B1B888B4202D3024B4000C15270472F
:106780000A41FF1FDC66FF1F014B4000185A70478B
:10679000DC66FF1F1722014B1A807047DC66FF1F63
:1067A00070B505000E2005F00FFB041E13D0D0239A
:1067B000037000230622837007494570033005F0FB
:1067C000ABFB064B2100DA8A62811B7E2373044BEC
:1067D000187805F099FB70BDF866FF1FE866FF1F8B
:1067E0005A41FF1F262803D8024B4000C05A704769
:1067F0000148FCE70C41FF1FFFFF000070B50600D9
:106800000C00094D1C220021280005F0F5F9074B6A
:106810001E70074B1C7005F0E7F80123002801D01B
:10682000002312202B7070BDE866FF1F5A41FF1F26
:106830000967FF1F70B505000D4C0800E260A160FC
:1068400010220021656005F097F8012803D110217E
:10685000A06802F061FD10220021280005F08CF8EC
:10686000012803D11021606802F056FD70BDC046BA
:10687000E866FF1F70B5041E05D1002903D006226B
:106880000D4805F049FB0D4B1D78012D11D1002C51
:1068900005D102221A7005F0F7F8280070BD002219
:1068A0001A70074B1B78FF2BF7D02000FFF778FFFB
:1068B000F3E70025F1E7C046F866FF1FE866FF1F13
:1068C0005A41FF1F030010B5002801D1002010BD60
:1068D00000780B4A002803D15988D1821B7913769E
:1068E0001378022BF2D10023984200D103331370A6
:1068F000044B1B78FF2B01D0FFF752FF0120E6E786
:10690000E866FF1F5A41FF1F002911D000280CD054
:106910004B79012803D140225242134303E03F2226
:106920001340032802D001204B7170474022F4E746
:106930000800FAE770B5094D0100287800280BD04F
:10694000074C0622200005F0E7FA21002878FFF71F
:10695000DBFF200005F080F870BDC0460867FF1F10
:10696000E266FF1F00290AD0012808D13F224B7997
:106970009343C02B03D0403B5A425341981C70476D
:1069800070B5174D06002B78FF2B15D00A2005F0A7
:106990001BFA041E10D0D0230370C83B8370114B28
:1069A00011491B784670C3700622043005F0B4FA12
:1069B0002100287805F0A8FA0C4B1B78012B0DD18B
:1069C0000B4B1B68002B03D09B68002B00D0984713
:1069D000084B04211878084A04F09EFF70BDC04699
:1069E0005A41FF1F0867FF1FE266FF1F0467FF1F72
:1069F0003067FF1F3467FF1F60EA0000014B986893
:106A00007047C046E866FF1F014BDB681868704797
:106A1000E866FF1F074B10B5DA681368013313608F
:106A2000054B1878FF2803D08021C90104F084FFAA
:106A300010BDC046E866FF1F5A41FF1FF7B50E00A4
:106A400002F0CAF8051E1CD00E4B06621F78002FFC
:106A500000D10778AB791020019305F0B5F9041E39
:106A60000FD0D0230380C73B8370019BE91DC37007
:106A70000622043005F050FA21003800E66005F0E7
:106A800043FAF7BD5841FF1F014B18787047C046C5
:106A90000867FF1F054B002805D1054B1A78054BE9
:106AA000002A00D1014B18007047C046F866FF1F4E
:106AB0000867FF1FE266FF1F014B58687047C0461A
:106AC000E866FF1F024B1868431E9841C0B270472A
:106AD0000C67FF1F421E03000120152A03D9FF3B4C
:106AE0005A425341D8B27047F0B51C0000230E0043
:106AF00085B0039002920B70029A934201D300205A
:106B000019E0E55C5A1CD2B2002DF8D00298511958
:106B10008142F4DC0233DFB2A35C18000193FFF77B
:106B2000D9FF002807D0013D019A0399EBB23370D9
:106B30008A4202D1E01905B0F0BDDB19DBB2DBE718
:106B400010B50C0002F0A0F803001220002B03D0B7
:106B50002100588805F010F910BD000070B50E4DE9
:106B600084006359002B15D0186A002801D005F065
:106B700073F82B59586A002801D005F06DF82B598D
:106B8000986A002801D005F067F8285905F064F8E4
:106B900000232B5170BDC0461867FF1F1C4B70B5FA
:106BA00004000E00150099420AD11A4B1B68002BF5
:106BB00001D1122070BD1B68002BFAD09847F9E76D
:106BC000154B994215D1134B1B68002B0AD01B683B
:106BD000002B07D09847002804D1104B1C70104B95
:106BE0001D70E7E729002000FFF7AAFF0028E1D188
:106BF000F3E7080001F0F0FF0028DAD00378032063
:106C0000A342D7D12900300005F0B6F8D2E7C0463C
:106C1000FEFF00001467FF1FFFFF00001167FF1F4A
:106C20001067FF1FF7B50400808801F0D5FF00252D
:106C3000A84203D00578A08802F00AF81C4E3378E9
:106C4000002B1FD0AB421DD11A4B28001978FFF73B
:106C500077FF002818D000233370A3790820A77885
:106C6000A688019305F0B0F8011E0DD0D023037063
:106C7000CA3B8370019B477086808371280005F0B2
:106C800043F901E0002DE8D1A0880B4B8200D358D6
:106C9000002B01D0FFF762FF1721A088FFF768FDE6
:106CA000A08801F02BFDA08801F002FEF7BDC046D0
:106CB0001167FF1F1067FF1F1867FF1FF0B587B030
:106CC0001D000CAB1B88070001930DAB1B88142023
:106CD00002930EAB1B88160003930FAB1B88009129
:106CE000049310AB1B88059305F06EF8041E1AD0B0
:106CF000D0230370CB3B47708370C67006222900F7
:106D00000430002D11D005F007F9019B21006381AB
:106D1000029B0098A381039BE381049B2382059B34
:106D2000A37405F0F1F807B0F0BD04F065FFECE7DF
:106D3000F7B5009308AB1B8807000C200D00160068
:106D4000019305F041F8041E13D0280001F044FF20
:106D500000280FD00078D0232370C93BA370009B7C
:106D600021002381019B6770A580E680638105F087
:106D7000CBF8F7BD014B1878EDE7C0465A41FF1F2D
:106D800013B5040064890389C2888188C07800949F
:106D9000FFF7CEFF13BD000010B5044C206800289B
:106DA00003D004F059FF0023236010BD1C67FF1FB0
:106DB000A122F0B5818892004A43384B384F1B68B6
:106DC00089B09B189D2292009B18827904001A605A
:106DD0003B68002B5FD01D78324B1B68002B04D022
:106DE0005B68002B01D00020984726000836310050
:106DF000E079FFF7B7FD237DE0710200E0780493AE
:106E0000638A29000393238A0293E3890193A38869
:106E100000933300FFF752FFE378002B0BD1E28998
:106E2000A379A18802920196E279280000920122BA
:106E300001F0DCFEE0703B68002B20D0FFF7ACFFD8
:106E4000194D287800281AD0184B1978FFF778FECA
:106E5000002814D02B780820A788E678079304F040
:106E6000B3FF011E09D0D0230370CA3B4670837064
:106E700087808671079805F047F800232B7017214B
:106E8000A088FFF775FCA08801F038FCA08801F00D
:106E90000FFD09B0F0BD064B9DE7C0463409FF1F4A
:106EA0001C67FF1F3067FF1F1167FF1F1067FF1F61
:106EB0005A41FF1FF8B5070008000E0001F08CFED4
:106EC000041E18D02620FFF78DFC051E00D1257862
:106ED000062004F079FF041E0DD00021062204F0E4
:106EE0008BFED0232370C23B21006770A370A68065
:106EF000E8B205F009F8F8BDF0B585B001930AAB2A
:106F00001B78070002930BAB1B7808000D00009262
:106F1000039301F061FE061E22D0102004F054FFFE
:106F2000041E1DD01022002104F066FE2620FFF76B
:106F300059FC002800D13078D0232370C13BA370C6
:106F4000009B21002372019B67706372029BA580E6
:106F5000A372039BC0B2E3720C9BE36004F0D4FF06
:106F600005B0F0BDF7B50D00019001F035FE071E2C
:106F70001FD00E2004F028FF041E1AD02620FFF791
:106F800031FC061E00D13E78D0232380C53BA37080
:106F9000F91D0622E01C04F0BFFF019B2100638164
:106FA00001232B40AD07ED0F23736573F0B204F09E
:106FB000ABFFF7BDF0B585B0029010000D001700D3
:106FC0000A9E039301F008FE041E31D0029B002BA1
:106FD0002ED1039B02795B0724D51223134304228D
:106FE000002E08D10B99002905D10C99002902D156
:106FF0000D9900291AD01A430D9B2271002B00D045
:10700000C9E0002E00D1CFE0002D00D0CCE0606AB6
:10701000002801D004F020FE1C21300004F054FFB1
:10702000606205E002239A430E33D7E7934323714E
:10703000654BBA00D458002C00D1AAE0002E10D025
:10704000236A002B03D11C2004F056FE20625E4B05
:10705000BA00D358186A002803D01C22310004F06B
:107060005BFF0C9B002B12D0574CBB001D596B6A69
:10707000002B03D1162004F03FFE6862BB00E358EA
:10708000586A002803D016220C9904F045FF0D9B86
:10709000002B11D04C4DBC006659B36A002B03D1B4
:1070A000142004F029FEB0622B59986A002803D0FE
:1070B00014220D9904F030FF380001F08DFD051EFB
:1070C00067D0414BBA00D358002B62D01A6A3420E3
:1070D000002A00D11C389A6A002A01D0143080B2EC
:1070E0000B9A002A01D01C3080B25B6A002B01D0C1
:1070F000163080B204F068FE041E4AD01822002127
:1071000004F07AFD2620FFF76DFB0190002801D1E5
:107110002B780193D0232370029B200063700A23F5
:10712000294EA370039BBD00A371AB59A780196AB8
:107130001830002905D01C22A06004F0EDFE2000CC
:1071400034307359996A002907D00300142214338C
:10715000E060029304F0E0FE02980B9B002B08D045
:1071600003001C221C330B992061029304F0D4FE0F
:1071700002987359596A002903D01622606104F0FD
:10718000CBFE6B462100187904F0BEFE3800FFF7F5
:10719000E5FC05B0F0BD10220D9B0D991B69A018F0
:1071A000236204F0B9FE2CE70B9B002B00D13FE7D4
:1071B000012D00D03CE7606A002801D004F04CFDAE
:1071C0001C210B982AE7C0461867FF1F10B5044C16
:1071D0002068002803D004F03FFD0023236010BD89
:1071E0000C67FF1F0B4B07B51A68002A01D100205E
:1071F0000EBD6946531C012012780731FFF774FC5D
:107200000028F4D002780123100018401A42EED072
:10721000EEE7C0462867FF1FF0B51F4F01203B680F
:1072200087B0002B25D09B78059300F0B3FB002896
:1072300021D00A20FFF7D6FA04000B20FFF7D2FA7C
:10724000164B05001E78731E9E413B68F6B2191D51
:10725000D878FFF759FB3B682900DA7A04330392A8
:107260009A7901930292009033002000059A04F06D
:10727000A3FB07B0F0BDFFF7B5FF002805D006203F
:10728000FFF7B0FA04000720D8E70820FFF7AAFAB2
:1072900004000920D2E7C0460C67FF1F0867FF1FE4
:1072A00070B50A4E040033780D00FF2B0DD004207A
:1072B00004F08AFD011E08D0D0230370CE3B457038
:1072C0008370C470307804F01FFE70BD6841FF1FEA
:1072D00070B5040006200D0004F076FD011E0AD0F2
:1072E000D0230370CD3B8370054B44701B688580B1
:1072F000187804F009FE002C01D0FFF767FF70BD7D
:107300000C67FF1FF8B5264F06003B680D001124DF
:10731000002B05D10522234B1B78134202D11224E6
:107320002000F8BD204A10241268002AF8D01278F4
:10733000002AF5D0DB0719D52B789A1E012A1AD816
:107340000C2004F0D9FC132438600028E8D0002376
:107350000A22437029000670023004F0DDFDFFF7B9
:107360005BFF041E0AD0FFF731FFD9E700F012FBE4
:107370000028E1D1E4E7002BE2D0D0E70B4B1B78EB
:10738000032BCDD11D20FFF72DFA094B18800028C3
:10739000C6D0084B04211878074A04F0BDFABFE7AD
:1073A0000C67FF1F0967FF1F2867FF1F0867FF1F84
:1073B0000667FF1F3467FF1F60EA0000F7B50193FF
:1073C000194B14001A78052306000F0012201A42E8
:1073D00021D0012920D1154B1D68002D1BD0022082
:1073E0001F2C18D8002C02D0019B002B13D0104B5F
:1073F0001F221E706E1C0021300004F0FDFB01995D
:107400002200300004F088FD310020002C70002F95
:1074100006D004F0A1FDFEBD064B12201D68DCE77E
:1074200004F062FCF7E7C0460967FF1F2867FF1FEB
:107430006841FF1F2467FF1FF8B50F4E1224336801
:10744000002B17D01B780F3C834213D100250B4F24
:107450000221387804F020FD094B042138781D8082
:1074600004F01AFD074B28001D8033685C7004F09F
:107470006BFA04002000F8BD0C67FF1F3467FF1F84
:107480002067FF1F0667FF1F70B5012823D11B4C23
:107490002388002B03D01A4A1578002D07D0194BEA
:1074A0001B68002B02D01878FFF7C6FF70BD3B2B7E
:1074B00002D93C3B2380F9E7134E0221307804F0D7
:1074C000EBFCFA222388920002215A43307804F020
:1074D00003FC2580EAE70B4B1B68002BE6D00B4B27
:1074E0001B785B07E2D5084B0221187804F0D4FC26
:1074F0000022024B1A80FFF769FED7E72067FF1FC3
:107500000467FF1F0C67FF1F3467FF1F0967FF1F1A
:10751000F8B51E4D2868002803D004F09DFB002319
:107520002B601B4E3068002803D004F095FB00232D
:107530003360184F05243B7818002040234221D0A7
:10754000154800F02BFA3B78234213D0202004F09A
:10755000D3FB2860002813D02022002104F04CFB2C
:10756000202004F0C9FB041E306005D02022002139
:1075700004F042FB002004E0286804F06DFB2C605E
:107580001320F8BD00F00AFAF4E7C0462867FF1F91
:107590002467FF1F0967FF1F5C41FF1F10B50A4CDE
:1075A00023681A1E0ED0002808D10130587004F04C
:1075B000CBF9002805D02368002B02D00021FFF76B
:1075C00087FE0122100010BD0C67FF1FF7B5274E84
:1075D000050033680191181E21D05C78244F012CDE
:1075E00030D1FFF7FFFD002825D02000FFF7FAF883
:1075F0000400412814D91F4B022118781E4A04F0B8
:107600008BF91E4B3C3C1C80022233685A703B783D
:10761000002B14D128000199FFF75AFE0120FEBD6E
:10762000FA2292004243002AEED0124B022118782F
:1076300004F052FBE8E7FFF7D5F80200F3E7002378
:107640003B70EBE73B78002BE8D1032004F0BCFB58
:10765000011E08D0D0230370CC3B45708370336883
:10766000187804F051FCFFF7B1FDD7E70C67FF1F56
:107670000467FF1F3467FF1F60EA00002067FF1FD9
:1076800010B51749838802008B4220D011D81549C4
:107690008B4217D0144900205B1899B2012907D8F2
:1076A000926811785A425341D8B2FFF7F9FD012090
:1076B00010BD0E4A00209B1807229BB29A424041FF
:1076C000C0B2F5E783681878FFF768FFF0E78368D2
:1076D00099785A78090218781143FFF777FFE7E79E
:1076E0000A20000006200000F8DFFFFFAFDFFFFFE9
:1076F000014B18707047C0466941FF1F10B5064C1A
:10770000207001F045FA207804F0E6F90521207890
:1077100000F068FD10BDC0463467FF1F0BB273B5A3
:107720000D00002B00DBC4E0884B187804F004FB4C
:10773000041E0ED00378912B0FD0A22B00D1A1E014
:10774000834B1878FF2852D0210004F0DDFB00287D
:107750004DD180200002684076BD43780F2B76D053
:1077600013D8052B70D00E2BEAD18088794B984224
:107770002BD8794B98421BD8784B9842E0D1A3681C
:107780001878591CFFF776F838E03E2BD8D183786B
:10779000032B74D06CD8012B6ED0022BD0D1704B40
:1077A0001B68002B23D05B68002B20D098471EE07D
:1077B0006C4BC0180C28C3D804F0DEF91DC2C215EA
:1077C0000BC20B0B0B3223C23C00674BC0180728BF
:1077D000B6D8664B1B68002B09D01B68002B06D05F
:1077E000200098470AE0A3681878FFF7C9F820003E
:1077F00004F092F9ADE7A068FFF764F800289FD085
:10780000F5E7A3681B78002BF1D0554B1B68002BC4
:10781000EDD01B68002BEAD0210055489847EDE7D2
:107820004F4B1B68002BE2D01B68002BDFD02100E0
:107830005048F3E7504B1B68002BD8D05B68002BF7
:10784000D5D021004348E9E7FFF7ECF9CFE780887E
:107850004A4B984203D04A4B984200D070E7464BBF
:107860001B68002BC3D05B68002BC0D02100D5E77C
:10787000153B012BBBD963E7FFF79AFAB7E7FFF790
:107880007FFAB4E73F4B1B78042B07D100236A46ED
:1078900013800179408800F0CBFCA8E7364B1B68C9
:1078A000002BA4D05B68002BA1D00100364898477C
:1078B0009DE7012421420AD0294B1B68002B04D0EC
:1078C0005B68002B01D000209847012043E78B071D
:1078D0000AD5264B1B68002B04D05B68002B01D017
:1078E00020009847022036E70421280008400D4276
:1078F00000D131E7254E3388002B21D0013B9BB2CC
:107900003380002B1AD1FFF7DDF800280AD0204B76
:107910001C70164B1B68002B04D05B68002B01D039
:1079200020009847FFF7C8F8694601F00CFD68464B
:10793000FFF700F81D20FEF755FF308004200AE70E
:10794000024B187804F0A8FAF8E7C0463467FF1F26
:107950006941FF1F0E2000000120000009100000F7
:107960002C67FF1FFEDFFFFFAFDFFFFF3067FF1F4A
:107970000C2000000B2000001467FF1F0D200000EA
:10798000132000000967FF1FFFFF00000667FF1FAD
:107990000467FF1F10B501F09FF910BD014B18607F
:1079A0007047C0463067FF1F0B880020162B01D898
:1079B00017230420014A13807047C046DE66FF1F6C
:1079C00000207047074A03001188814207D0918840
:1079D0000020994202D10130800010187047002029
:1079E000FAE7C0463C67FF1FF0B58F7806000D0030
:1079F000C5B01E2F15D1FFF7E5FF051E03D10024EA
:107A0000200045B0F0BD00223B003100C07800925C
:107A100000F0B8FB0400A81C00F0D8FBFF23EB70BB
:107A2000EEE7264B062403931B78FF2BE8D0182F94
:107A3000E6D87B08224A013BDB0002929A58944622
:107A4000002ADDD0029AD3185B68002BD8D00878C2
:107A5000002802D14B78012B02D10624122FCFD15E
:107A600007AFAB88697800976446AA68A047041EF0
:107A7000C6D1AB78029A5B08013BDB00D318390012
:107A800030005B689847041E0BD1AB78042BB6D04E
:107A9000039A310010782200009700F073FB040075
:107AA000AEE76A78002AABD1AA7805A93B880871AD
:107AB00030000A704B80FEF74BFBA0E76C41FF1FC4
:107AC00054C200111D4B37B5050098420BD0002958
:107AD0000AD1FFF777FF002805D11948FFF772FF99
:107AE000002800D0058037BD01291AD1FFF76AFFB1
:107AF000041EF8D001235B420380A378FF2BF2D051
:107B0000FE2B07D00023E0781422009329001E33B7
:107B100000F038FBA01C00F059FB01235B4263809E
:107B2000E1E70229DFD1013901F0C2F80028DAD1FA
:107B30002800FFF747FF041EDFD1D4E7FEFF000057
:107B4000FFFF0000022210B5074B52421A8007487F
:107B500001325A809A80DA8000F084FA044801F0F9
:107B600029F8002010BDC0463C67FF1FE9790011CD
:107B7000C57A00110388F7B50400002B02D1022555
:107B80002800FEBD42680221137825485268FEF79E
:107B9000A7FD00282ED0234F01253A88002AEFD0D8
:107BA000802321885B0201259B1A9942E8DC0C2086
:107BB00004F0A2F8061E31D03B8822889C460023A0
:107BC0001800019561469DB2491989B2AA421BD895
:107BD000002801D062443A8000233000082208C007
:107BE000210004F099F9104A1368002B13D10025E5
:107BF0001660C5E76268022113780C485268FEF7E8
:107C00006FFD0028C7D1BAE760681D0140194181A6
:107C100001330198D6E71A001B68E6E71325AFE7A2
:107C2000C2C200116A41FF1F3867FF1FC0C20011A6
:107C3000014B18707047C0466C41FF1F14230A00A7
:107C400010B51A40194204D00122102101F04CF85D
:107C500010BD4B06F9D4C843022340001840F7E793
:107C600010B514008B0604D50122102101F03CF858
:107C700010BD08230A001A40194202D14BB2002B52
:107C80000FDA102101F030F8002808D02300F23379
:107C90001B78002BECD0F1342378012BE8D10020A5
:107CA000E6E703208907FAD4E2E70000F0B51F00F9
:107CB000184B85B01C68019002910392002C27D1CB
:107CC000200005B0F0BDA5683301ED186B89019A5D
:107CD000934211D3029A93420ED8002F04D10A9BEB
:107CE000002B10D12C00EBE73B002978039A686841
:107CF000FEF7F6FC0028F2D10136B6B2A388B342F3
:107D0000E1D82468DAE7A3680A9A5B891380E9E777
:107D10000026F3E73867FF1F37B50C000A8849884B
:107D20000123914217D3002A15D0651D23792A001B
:107D300002210A48FEF7D4FC102300280BD0237937
:107D40006188208800242A000094FFF7AFFF0A23EF
:107D5000A04200D0230018003EBDC046C2C20011A0
:107D600013B50A0008884988012388420BD80028E7
:107D700009D00024137905320094FFF797FF0A23F6
:107D8000A04200D02300180016BD13B50A000888D1
:107D90004988012388420BD8002809D00024137990
:107DA00005320094FFF782FF0A23A04200D023008F
:107DB000180016BDF0B58BB003904A8808880E00F5
:107DC0000123824213D3002811D00023012704ACE1
:107DD00023700022718813000092FFF767FF0500EF
:107DE0002078002D06D122780A23002A41D11800DC
:107DF0000BB0F0BD002835D12B78022B18D167705D
:107E00006A8983000130E31880005A806968022281
:107E1000201804F081F823780133DBB22370042B9F
:107E200019D93B006889013080B2002BD1D0DAE744
:107E300002236370122358436A89231804305A803E
:107E400069681022201804F067F823780133DBB248
:107E50002370002BE5D10A4A6B899B185A42534183
:107E6000DBB2DFE76378012BE4D12B78022BC7D09C
:107E7000B9E721000398FEF795F90023B7E7C0465C
:107E80000100FFFF0F4BF0B504001868002816D062
:107E900083685D89A54207D88288AE18B44203DAA8
:107EA00012019A18934201D10068EFE71E005F8922
:107EB0001036A74204D1002900D00D801800F0BD73
:107EC0003300EFE73867FF1F70B505000C00088826
:107ED0000021FFF7D7FF03000120002B04D0220070
:107EE0002800197AFFF7BCFE70BDF7B50C0000251D
:107EF00001902300EE331B78AB4201D800200AE04A
:107F00006B00E65A00213000E718FFF7BBFF00289E
:107F100002D126800130FEBD017A0198FFF78EFE66
:107F2000002802D03B882380F5E70135EDB2E0E779
:107F300010B5040008880021FFF7A4FF030001200A
:107F4000002B03D02000197AFFF778FE10BD000047
:107F5000054B1B68002B01D1180004E09A68528978
:107F60008242F6D1988870473867FF1FF0B50E2718
:107F7000002687B0039302ABFF183E8005001F4B1D
:107F800040891400984207D02B78013000976A6826
:107F900080B2FFF78BFE060002212B7818486A6832
:107FA000FEF79EFB00280FD06C892000FFF7D0FF62
:107FB000002802D0013C0419A4B2039B002B00D07E
:107FC0001C80300007B0F0BD02212B780D486A6894
:107FD000FEF786FB0028E7D102212B780A486A6861
:107FE000FEF77EFB002807D0002EDED03B88A342A0
:107FF000DBD17489013CDFE76C89DEE7FFFF00001D
:10800000C2C20011C0C20011BEC2001110B50C00E6
:10801000FFF7D8FC03000220002B0AD0002C00D070
:1080200023609B781720FE2B03D00138FF2B00D153
:10803000002010BD73B50D0001A904001600FFF764
:10804000E5FF172805D0002E04D129002000FEF7F7
:1080500025F976BD01221021200000F045FE002800
:10806000F3D0F6E7014B18607047C0464867FF1F22
:1080700037B56B469D1D010004000222280003F065
:10808000FBFD2B88B02B0ED12379122B09D12300B5
:10809000FA331B78012B06D10121608800F0E0F84B
:1080A00001E01B2BF8D037BD10B5054B042118702B
:1080B00000F098F8FFF746FDFEF76CFB10BDC046D8
:1080C0004C67FF1F0020F0B50BB20F0087B0834252
:1080D00034DA274B187803F02FFE051E2BD00378D7
:1080E000A02B25D103AE3100FEF7E2F8041E0BD120
:1080F000B378DB0724D51F4B06341B68002B03D055
:108100003100688898470400A868002801D003F06F
:108110001BFE002C08D1184A039B1340174A9342B8
:1081200006D0B3781B2B03D00121688800F098F8A3
:10813000280003F0F1FC80200002784007B0F0BD79
:108140000F4B1B68002B10D0310068889847041E25
:10815000DAD07378002BD7D1B27801A90A704B809E
:108160000C716888FDF7F4FFCEE70624F1E7C046FE
:108170004C67FF1F4467FF1F00FFFF000001120054
:108180004867FF1FF7B50190FC200D0017001E0087
:1081900003F01AFE04001320002C12D0B02320009C
:1081A0002370089BF4226770658026710830002BCD
:1081B00008D0190003F0B0FE2100019803F0A4FEDE
:1081C0000020FEBD089903F017FDF5E710B5041E69
:1081D00006D00078FD2803D803F0DEFBFF232370D0
:1081E00010BD00000A1F93B210B504000220032B3B
:1081F00005D882400020024BD1529B189C7010BDC4
:108200006C67FF1F0B8870B5043B04000D00022053
:10821000032B0BD80121200000F04AFD030014209D
:10822000002B03D02900200000F0DEFB70BD000011
:1082300007B51300034A00920A00012100F02CFC4C
:108240000EBDC0466D84001107B501920322009255
:10825000024B0A00122100F047FC0EBDEB84001116
:1082600007B56B4601AA11800449D8800878063307
:10827000012802D1190003F0C7FD07BD4D67FF1F9C
:108280000C4B10B518700023FF210B4A138013818B
:1082900093819380094A5380137051729381937232
:1082A000D174D3821375517703F0A6FB00F0FCF96B
:1082B00010BDC0467C67FF1F6C67FF1F4E67FF1F26
:1082C000F0B58DB06B46002003910C229B5E83427B
:1082D00000DBB1E05D4B187803F02EFD051E00D1E8
:1082E000A5E00378902B00D09EE006AF0100468801
:1082F000380000F013FA79680400002900D19DE0ED
:108300003B88052B6FD13B89032B1CD905AC200082
:1083100000F0A2F86288172A60D83989131D9942A3
:1083200031D17968237804310291D90738D5607842
:1083300000F08EF9071E06D0002303712378012B6D
:1083400008D0132B23D0A868002800D179E003F0CF
:10835000FBFC76E06288029909A800F0A6F802907A
:10836000380000F08BF909AA2378387A01920022AC
:1083700031000092029A00F012F9380000F064F91E
:10838000029B002BDFD0300000F080F9DBE70378A0
:10839000032BD8D16288029909A800F0D6F8DEE74D
:1083A00009AF122B12D13800029900F0B4F8021E66
:1083B000E9D127498B88002BC5D08879237801978C
:1083C00061780091310000F0EAF8BCE700233A0040
:1083D0003B8061783000FFF72BFFB4E71D4B09AA03
:1083E00009936178F6E7042B02D09A1F012AAAD8D4
:1083F000174A043B9B00995A0029A4D0D2189078C0
:1084000031003A0000F0ADF800289CD13B88042BE5
:1084100003D001213000FFF723FF012C04D1A8680D
:10842000002801D003F090FC280003F075FB8020A9
:10843000039B0002434018000DB0F0BD012800D19D
:1084400081E701213000FFF70BFFEDE77C67FF1F9D
:108450006C67FF1F010017000B7803704B784370A7
:10846000CB788A781B021343438070470A88030045
:1084700002700A88120A42700A88012A06D14A88C4
:1084800082704A88120AC270042070470220824219
:10849000FBD14A8804309A704A88120ADA708A88B6
:1084A0001A718A88120A5A71EFE710B50400012088
:1084B00082420CD94B780A781B02134323808342F3
:1084C00006D1CB788A781B0213436380002010BD4D
:1084D000022BFBD1CB788A781B02134363804B7944
:1084E0000A791B021343A380F0E70B8803700B8803
:1084F0001B0A43704B8883704B881B0AC3708B88A0
:1085000003718B881B0A4371CB888371CB881B0A4C
:10851000C3710820704703000120082A14D14A784B
:108520000878120202431A80CA788878120202433D
:108530005A804A790879120202439A80CA79887966
:10854000120202430020DA80704710B504000120B7
:10855000022A05D100204B780A781B02134323809E
:1085600010BDF8B5060010200F00150003F02CFC1C
:1085700004000120002C0ED0A0230C22290023800F
:108580006780201D002D07D003F0C6FC21003000BD
:1085900003F0BAFC0020F8BD03F02EFBF6E7F7B5B8
:1085A0001E00009008AB142017001D78019103F005
:1085B0000BFC041E12D0A2230370019B4770438062
:1085C000099B057146710C220830002B07D0190059
:1085D00003F0A2FC2100009803F096FCF7BD099976
:1085E00003F00AFBF6E737B5041E0FD04388002BD3
:1085F0000CD00025C1881323007A1722019500951D
:10860000FFF7CDFFFF2365806372257037BD000043
:1086100010B50C4904004A88002A09D08B89002B28
:1086200005D00020CB8A0222834201D010BD012256
:1086300013000A20434300204032C854C818428027
:108640000472F3E74E67FF1F0023438003707047F7
:10865000094B00211A0010B55C88002C06D01C794B
:10866000844203D10A234B43D01810BD01310A3391
:108670000329F1D10020F8E74E67FF1F10B5040071
:10868000407A03F089F9FF23637210BD704704300C
:1086900010B580B203F0C0FB002803D0042149428A
:1086A00003F03AFB10BD000070B50025104CA06827
:1086B0002580A581A580A84202D003F045FBA560D6
:1086C00000250C4C0C4B606D1D80230058331D7031
:1086D000A84202D003F038FB6565002560680028D9
:1086E00001D003F031FB013508340A2DF6D170BDFD
:1086F0001468FF1FB867FF1F0868FF1F70B5041ECE
:1087000009D1054D2880A881A880A868002802D03A
:1087100003F01AFBAC6070BD1468FF1FF0B54B8806
:1087200085B00193002343600A7905000F00022AF7
:1087300000D07BE0CA88032A17D98B685E78197845
:108740003602DC78D8790E4399781B7A24021B0212
:108750000C43034353495BBA0B80331D93421ED134
:10876000042C04D0631F022B0ED9012015E0019ABE
:108770004D4B1201D35A002B06D00198FFF7BEFFD4
:108780004A4A1369013313610421B8682E812C8091
:10879000494203F0C1FA6860002005B0F0BD434DC6
:1087A000042C06D0631F022B0FD9EB680133EB605A
:1087B000DBE7019A3C4B1201D35A002B05D00198FC
:1087C000FFF79CFF2B6901332B61374B300002937D
:1087D000019B029A1B010193002301998C468B5245
:1087E000130063449C8003939E81FFF750FF039B1B
:1087F000041E986016D00421B868494203F08CFA30
:10880000FA880100043A200003F086FB0199029ADD
:10881000FB888A5A043B9B18029A8B522B680133BF
:108820002B60A2E7AB690133AB619EE71E4B02935D
:10883000019B1E01029BF35A002B2DD002998C192B
:10884000A068002828D0012A26D1FA889B189BB25C
:108850007352A189994217D39B1AC018B96803F0C3
:108860005BFB029BA289F35A934200D07DE7002272
:108870002B81A3882B80A3686B60029BF2520B4A6A
:1088800053680133536070E7084A9368013393607B
:108890000198FFF733FF68E7044A536901335361D6
:1088A000F6E7C0467E67FF1F1468FF1F8467FF1F3F
:1088B00070B5051E15D10B4C0B4B18802300583397
:1088C0001870606D002802D003F03EFA656525003F
:1088D00050356068002801D003F036FA0834AC4205
:1088E000F7D170BDB867FF1F0868FF1FF0B517000C
:1088F000A12285B0920001934243394B06001B68C8
:108900000C009B18D933FF331D78FDF73DFF043071
:10891000854204DD3000FDF737FF0430C5B2BD42AB
:1089200007D33A0000213000019B03F08DFA05B017
:10893000F0BD2900380003F017F82300C6B2503309
:108940001E700393019B29006365380003F0ACF9A6
:10895000CBB20293002B02D0039B01361E7000267F
:108960002300503303931B78B34204D8606D002872
:1089700031D10020DBE7029A2800002A04D0013B15
:108980001000B34200D02800F700E719387003F058
:1089900053F8786000280ED03A78019903F0BCFAB9
:1089A000019A3B780136D3180E4A0193D369F6B287
:1089B0000133D361D4E7039B18706065A74205D1EA
:1089C000084A1320D36A0133D362B0E7606803F02A
:1089D000BBF90834F2E703F0B7F900236365C8E791
:1089E0003409FF1F8467FF1FF7B50D00070004213E
:1089F000686803F091F92B89040003702B891B0A26
:108A000043702B8883702B881B0AC3702E89022524
:108A10000436F6B2F42E15D81B4B9F4214D10C200D
:108A200003F0D2F91135011E0CD0902303708E3B58
:108A30000371043B4380154B8460C680187803F0B3
:108A400063FA00252800FEBD5C237B43104AD3183F
:108A50000093583301931B78002B0FD10300320091
:108A600038000099FFF742FF019B05001B78002B9F
:108A7000E8D13800009903F05FFAE3E7054A0725DB
:108A8000536A01335362DDE7FEFF00007C67FF1F7E
:108A9000B867FF1F8467FF1FF0B587B000901720ED
:108AA0000F0016000193FFF7F2FD1325041E18D0E6
:108AB0000C98031E02D00199201D9847030AE37009
:108AC000052303A9A0700430088127700098667000
:108AD0000B804C60FFF788FF051E02D0200003F0DA
