:020000041101E8
:100100007FB50023284C294D03932800217C284AE1
:1001100001F07DFA002812D103232800217C03AAD4
:1001200001F01CFA00280AD1224B039A9A4206D108
:10013000214B2248E360224B636104B070BD02266C
:10014000217CFE2228001F4B009601F0D9F90028DF
:1001500001D00020F1E71C4BA2899A42F9D1217C01
:10016000FF222800194B009601F0CAF90028F0D1AF
:10017000E389174A934203D1164B17486361DCE7C2
:10018000164A9342E5D1164B164A1B68934206D98C
:10019000C02304222800217C9B0001F01AFA124B94
:1001A00012486361C9E7C046202BFF1F8427FF1F49
:1001B000813700005959530059598320DC960111A9
:1001C000391201112C2BFF1F595900002E2BFF1F34
:1001D00083050000F1110111BC9601118215000088
:1001E000442BFF1F87130000F1120111CC9601115F
:1001F00070B5134D2B7C002B0DD0124C200001F05C
:100200002DF9297C382907D1BA22200001F0D0F934
:10021000200001F061F970BDEB890B4A934206D1D1
:100220009023022220001B0201F0D3F9F0E7074AD5
:100230009342EDD12000064A01F0E9F9E8E7C04613
:10024000202BFF1F8427FF1F830500008320000051
:10025000A2300000002370B51A4E1B4C30006361C1
:10026000637401F0FBF8402323744B2B0CD9CC238F
:100270003821AC2230009B01217401F0AAF900283A
:100280000AD0002525740CE0FFF73AFF051E08D1BF
:10029000237C0433DBB2E7E70C4B0D4D63610D4B60
:1002A000E3812368002B08D1002D06D00C22290001
:1002B000200008F085FF2B7B6374300001F00CF9FF
:1002C00070BDC0468427FF1F202BFF1F8D12011118
:1002D000AC960111AAAAFFFFF7B5164B0192C318FD
:1002E000021D0020009388235B05D3181B685C1C4B
:1002F0001AD09CB2402C18D88D781E0CAC4667469C
:10030000CD782D023D43AE4206D1019800280ED192
:1003100010000C70240A4C7003249BB20733A343D3
:10032000D218009B9A42DED3FEBD4432F9E710009A
:10033000FAE7C046FC0F0000802213B50300032437
:10034000019189B2520107319B18A14304305A1A16
:1003500088235B05C3181B68591C03D19042924146
:10036000104016BD99B2402907D80B000733A343AC
:10037000C0189042ECD30020F3E74430F9E7134B68
:10038000134A1B68126810B5FA24934201D81A0068
:10039000F824104BE4021B689A4210D813000E4A4E
:1003A00012689A420ED3013307D1F823DB029C4234
:1003B00003D10A49054808F0CBFF200010BDFC24FA
:1003C000E402ECE7FE24E402F7E7C04600C00711B0
:1003D00000D0071100E0071100F00711FFFFFF7FB9
:1003E000F0B59BB0150003900491402A5CD806AC90
:1003F00061802280FFF7C3FF002221000600FFF783
:100400006BFF05280FD92388AB420CD1002D07D0F4
:10041000504B2A000399C01808F0AAFE002802D108
:1004200001201BB0F0BD258030000699FFF784FF46
:10043000041E79D1069B0793FFF7A1FF80235B0180
:10044000C618802307001B039E4201D1F826F6023E
:1004500088235B05F31801931B68013302D00198D0
:1004600008F0A6FF3C49019808F072FF3B1D02937B
:10047000331D05938822029B52059B181B68089325
:100480005A1C13D188235B05FF183968019801397C
:1004900008F05EFF380008F08BFF30000799FFF787
:1004A0004BFF0400002C41D10020BAE744219AB24E
:1004B0000091402A04D80320D11D814389B20091C4
:1004C00004991B0C8B4224D0402A22D801223000F0
:1004D00008A9FFF701FF021E1BD1380008A9FFF78A
:1004E000FBFE04000428DDD9009A059B9B1880229E
:1004F0005201B21893422AD288235B05C118009A90
:1005000009A808F05DFE134B009A09A9F01808F03D
:10051000C7FD009A029B9446634402930F4B029AD4
:10052000FB189A42A6D3ADE70428BDD088235B050B
:10053000E018069908F00CFF0323EA1C9A4300D147
:100540006EE7044B0399E01808F0AAFD68E704245D
:10055000ECE7C04604000011FFFFFF7FF80F00002A
:1005600073B504001600402A1ED801AD6980FFF75C
:1005700006FF002229002A80FFF7AEFE042810D9CA
:100580002D88002E0BD0002C09D0321CAE4200D991
:100590002A1C074B92B2C118200008F011FE28B2A5
:1005A00076BDC04300B2FBE703204042F8E7C046F7
:1005B0000400001137B5042204000D0001A81649FB
:1005C000FFF7CEFF020004280BD1019BA34208D302
:1005D000AB4204D0104901A80195FFF701FF0120AB
:1005E0003EBD0E4C23682000019308F0E1FE019906
:1005F00020000139019108F0ABFE80235B01E41873
:10060000074B9C42EED10422034901A80195FFF754
:10061000E7FE0020E4E7C0465555000000C0071182
:100620000000081170B501241C4B90B020001C7014
:1006300006AD08F06DFF200008F0FAFD07F05EFB44
:100640002A00174B43CB43C21B682000136007F0FE
:10065000B5FC099B0799089A0698009407F072FC6C
:10066000802210495200200007F0C0FC16220E49DB
:100670000AA808F0A5FD0A220C4903A808F0A0FD6D
:10068000152220000AA907F0D1FC092203A90120A4
:1006900007F0CCFC064808F063FEF6E74A0AFF1FA5
:1006A000F49501119829FF1FC0950111D6950111EC
:1006B000B80B0000F8B500230926374F374C3B62D2
:1006C000E3681120B343E36008F08AFD112008F0CD
:1006D00047FD112008F054FF402322688025134372
:1006E000236080236268DB0213436360A3682C4AA3
:1006F0002B43A360A36802211340A3608023A26858
:100700009B0113431022A360236C072093432364AF
:10071000236C0F3A1343236480235B003B62226BFC
:10072000204B1A402263626B1A406263A26B1A402C
:10073000A263E26B1340E363E3681B4A1340E36088
:1007400007F0B2F80121072007F0C2F9174B11207A
:100750005A6C15435D6408F0D3FCFD21144B154A17
:1007600089005A508023C720626B5B031343636385
:10077000E36880003343E3600F4B104A195811407F
:10078000802212020A431A50802292051A6008221F
:100790000B4B5A63F8BDC04600F000403CF00040EF
:1007A000FFFFDFFFEFFFEFFFFFFF7FFF003800409D
:1007B0000000FF1F5118FF1F00E100E0FF00FFFFD6
:1007C0000000054010B502F08DFBFFF711FDE120A0
:1007D000C00408F09DFC10BD70B51A4CE388002BD6
:1007E00029D0194A934201D8FFF7ECFF2368E0882B
:1007F000A688C0188023711C89B2144D2060A18086
:100800009B00994218D3420A93B2C21AEB8022602D
:10081000A6800F4A642093420AD8FA220020D20010
:10082000934205D90A21180008F0DAFDC838C0B291
:1008300000232872E38070BD08F08AFC83B2EB804D
:10084000E7E7C046982AFF1F6B070000382BFF1F01
:10085000B70B000030B503A804880B20002C0ED184
:100860004968074D08784978090201430A20A942DE
:1008700005D1012120001980024B1B7A137030BD75
:10088000192A0000382BFF1FF7B5150008AA168893
:100890004A680F4F14785278120222430A24BA424F
:1008A00014D10122DBB2019200962A0008F06AFB03
:1008B000041E0BD1074B1B68002B07D068782A78E1
:1008C0000002104342425041013098472000FEBDD3
:1008D00002290000A82AFF1F30B501250379040072
:1008E000BFB02B4211D00A49408807F0BBFE284216
:1008F0000BD0084B01A95B8D4D800B80064B00226D
:100900001B7A60880B7104F083FD3FB030BDC04698
:10091000A02AFF1F2826FF1F382BFF1F10B50549EF
:10092000054807F055FE0421044A054807F012FE69
:1009300010BDC046A02AFF1FFFFF00000496011152
:100940002826FF1F10B5024805F0E6FB10BDC04683
:10095000D9080111F0B593B005921F00DAB20F2348
:100960009B1ADBB202930E239B1ADBB204931C9BEF
:10097000049A023B5B0806AC199DDB00134303900D
:100980003A000191601C0599237008F019FC2300BE
:1009900000222C000299013B8A4250D1002C00D049
:1009A000BCE0102221000AA80AAE08F031FC330096
:1009B00006A81A78215C01344A401A700133102CC1
:1009C000F7D10AAA1100019808F082FB2022212009
:1009D00006AB9B18049A05991A7006AB3A00C0182A
:1009E00008F0EEFB0EAB781C0021029A181808F0F4
:1009F0000FFC2F21012306AA521813700494002D16
:100A000022D12B0029000EAA0298013A834200D07D
:100A100080E0019806AA0EA908F05AFB06AA3378CE
:100A2000525D0135534033700136102DF6D11C9ABA
:100A30001B980AA908F0C4FB002013B0F0BD0132D6
:100A40001C74D2B2240AA5E72C00102D00D9049CF6
:100A5000039B002B19D106AF1900049A380008F047
:100A6000D7FB22003800189908F0AAFB039B0AAABA
:100A70001178F85C0133414011700132102BF7D12D
:100A80000AAA1100019808F023FB06AF3A0001986A
:100A90000EA908F01DFB0023189AF95CD25C4A40AD
:100AA0001A99CA5401339C42F6D1039B012B19D1E8
:100AB00010220021380008F0ABFB220038001A9900
:100AC00008F07EFB00230AAA06A811781F5C0133F8
:100AD000794011700132102BF7D10AAA1100019848
:100AE00008F0F6FA00221A9B2D1B1B191A93189B6B
:100AF0000EA91B191893029B9A4200D17FE7CB7B6A
:100B000001390133DBB20B74002B00D077E70132DF
:100B1000D2B2F0E701331174DBB275E70120404235
:100B20008BE7000010B5134A134B5179134C197021
:100B3000117920005970D17899709178D9705178D5
:100B4000127819715A712E2252429A712A32DA7130
:100B500045321A720A49313AFFF702FD102808D0CF
:100B60001021200008F0E4FC102220000449FFF7C7
:100B700037FC10BD6509FF1FBC2AFF1FAC2AFF1FF1
:100B80000DBC0000F0B5431805000020114F124ABB
:100B90003E8889B00C00114956720792320A4A7099
:100BA000320ECA7088701E70042639889870090A3F
:100BB0005970D8709B19039301940D230849079A23
:100BC000049602950095FFF7C5FE0834E0B209B01F
:100BD000F0BDC046382BFF1FBC2AFF1FC52AFF1FD0
:100BE000AC2AFF1F012303700B4B1A7A42700222BA
:100BF00082709A78C270DA780271032242711A798F
:100C000082715A79C2710C2202729A794272DB792E
:100C100083720B207047C046382BFF1F11230370CF
:100C2000084B5B7ADB07DB0F43703E238370064B78
:100C3000197BC170597B0171997BDB7B4171837199
:100C400007207047382BFF1F442BFF1F022370B56E
:100C50000370013B43701D4A0533837010330371E9
:100C60001168443B43712A33837104002022080039
:100C7000174B1040DB7C114216D02500213208357D
:100C80002800E271002B0BD0FFF7C8FF07212800D6
:100C9000FFF778FF0430C3B2E3700433D8B270BDFD
:100CA000FFF7A0FF0B21F2E7402220722000E27143
:100CB000084A0A3012886272002B03D0FFF7AEFF99
:100CC0000D23E9E7FFF78EFF1123E5E75C2BFF1FFC
:100CD000442BFF1F382BFF1F10B5142008F0C0FA5B
:100CE000124B14220021186008F092FA002008F03C
:100CF00057FC012008F0DCFB022008F001FC032077
:100D000004F0ACFC042006F0C5FC052003F0E4FE72
:100D1000062004F0B7FB072001F07EFC082007F056
:100D2000F9FB092001F034F910BDC046CC2AFF1FA1
:100D300070B50D7A100004AA2C00168810221440F9
:100D4000154219D1002E19D10A78022A11D14A6808
:100D5000517815780A4A09022943914206D10C229A
:100D600008491A8008F02CFA200070BD1C800A2463
:100D7000FAE71C800124F7E70824F5E70B24F3E7E2
:100D8000F4FF0000F8960111F7B50F7A1D0008ABCB
:100D900016003C001A8820231C401F4228D10B78E3
:100DA000022B27D14B681F785B781B023B43154F02
:100DB000BB4214D0144883421ED1002A1ED1202DDC
:100DC0001ED8C8682A00310008F0FAF90F4B042138
:100DD0001D700F4B187808F03BFA2000FEBD01246F
:100DE000009201943200EBB208F0CCF80400F4E772
:100DF0000824F2E70124F0E70A24EEE70B24ECE7ED
:100E00000D24EAE702290000F4FF0000D02AFF1FAA
:100E1000782BFF1F094B10B50400984205D001291B
:100E200004D12000064907F0D3FB10BD0229FCD1F4
:100E3000013905F02BF90028F3D0F6E7FEFF00009A
:100E4000F22AFF1F10B504000749084807F0C0FB4D
:100E5000074805F09DF80020E40704D50421054A61
:100E6000054807F077FB10BDF22AFF1FFFFF0000C7
:100E7000150E0111489601116C26FF1F10B50B4B82
:100E8000BEB01A780A4902A800F0AEFC01AC80B2EC
:100E90006080002808D0074B00225B8D2100238052
:100EA000054B188804F0B4FA3EB010BDD02AFF1FDD
:100EB000D12AFF1F6C26FF1FA027FF1F332310B569
:100EC000040003700A220C49013008F079F90B4B39
:100ED00013201B681A0AE37222731A0C1B0EA373E9
:100EE000074B6273DA68E273DB681A0A22741A0C21
:100EF0001B0E6274A37410BD382BFF1F682BFF1FDD
:100F0000442BFF1F30B5012503790400BFB02B42ED
:100F100013D00B49408807F0A5FB28420DD0094BA0
:100F200001AD5B8D02A82B80FFF7C8FF13236B80F8
:100F300000222900608804F06BFA3FB030BDC04643
:100F4000F22AFF1F6C26FF1F10B5024805F0E4F8D7
:100F500010BDC046050F011170B51B4EBEB06946ED
:100F6000308804F041FA172822D00023174D01AC35
:100F70006380AB68002B12D0154B02A85B8D2380D9
:100F800002F04EFA80B26080002808D0210030883C
:100F900002F072FB042808D003D800280FD03EB01E
:100FA00070BD072801D01328F9D1EB68013BEB6035
:100FB000084B1E224021187808F07AF8EFE7638882
:100FC000032BD9D8EBE7C046A027FF1FD42DFF1F66
:100FD0006C26FF1F782BFF1F70B5160004AA14881B
:100FE00005AA15784A685078117800022A4A084301
:100FF000801805284BD808F05BF903131E29343FED
:101000000720032C0BD80422121BAA4200D92A0065
:1010100022491A803000091908F0D2F8002070BD6A
:101020000720112CFBD81222121BAA4200D92A0039
:101030001B491A80EEE707200E2CF0D80F22121B56
:10104000AA4200D92A0017491A80E3E70720032C97
:10105000E5D80422121BAA4200D92A0012491A809C
:10106000D8E70720032CDAD80422121BAA4200D9A1
:101070002A000E491A80CDE70720032CCFD804227E
:10108000121BAA4200D92A0009491A80C2E700228D
:101090000A201A80C3E7C046DCD5FFFF8F960111F6
:1010A000FA2AFF1F7F9601117A9601117596011198
:1010B0007096011110B50D21024A034807F04AFA53
:1010C00010BDC04664960111AC26FF1F70B5464A9C
:1010D000464C0023D05E0223E15E0023884210DCF0
:1010E0000225505F88420CDB0425605F0426955F73
:1010F000854206DC0623D55EC60FEB178542734199
:10110000DBB2012004250340607A9B00A84303431F
:1011100063720C23D05E002809D00825535F657ADE
:10112000ED0620D51B1A002806DA8B4206DA1021BC
:10113000637A8B43637201E08B42F8DC0E23D15E4D
:1011400000290BD00423E05E0A25535F657AAD06C3
:101150003ED55B1A002912DA834212DA2021637A23
:101160008B4363720DE01B18002805DA8B42E5DD26
:101170001023617A0B43DDE78B42F9DBDEE7834224
:10118000ECDC3023607A08260340591E8B41012590
:10119000D9B2B043DB0018436072137C2B4203D0FA
:1011A000C1B20907C90F69400220637A4A0083432C
:1011B00013430330637206F047FB062006F054FB2E
:1011C00001250300607A2B40A8431843607270BD6C
:1011D0005B18002905DA8342D3DD2023617A0B43B3
:1011E000BFE78342F9DBCCE70E2BFF1F382BFF1F35
:1011F00037B50F4C01AD04232A00217C00F0AEF975
:10120000002813D12988236849BA89B24B43218920
:101210001B0C5B18074A6988538049BA636889B216
:101220004B4361891B0C5B1893803EBD0120FCE79A
:10123000202BFF1F382BFF1F37B5124C06236A46A1
:10124000217C6D4600F08AF9002818D1298823688E
:1012500049BA89B24B4321890B4A1B0C5B18538056
:101260006B4603335B78E9781B020B435BBA61681A
:101270009BB24B4361891B0C5B1893803EBD0120E0
:10128000FCE7C046202BFF1F382BFF1F73B5164C01
:1012900007236A46217C6D4600F060F9002820D1C2
:1012A0002B787F2B1DD8F023EE781B0332041A40D5
:1012B000AB880E495BBA9BB21A4323683609534385
:1012C00022891B0C9B184B806A78AB7812031B0198
:1012D0001A4363683243534362891B0C9B188B800B
:1012E00076BD0120FCE7C046202BFF1F382BFF1FD7
:1012F000F0B5022785B0154C03AD217C2B000022F0
:101300000097060000F0FCF8002802D0012005B08C
:10131000F0BD0E23217C0122300000976B4400F0C9
:10132000EFF80028F2D129882368C9BA4B432189F4
:101330001B145B18064A6988538049BA636889B2EE
:101340004B4361891B0C5B189380E0E7202BFF1F48
:10135000382BFF1F70B5184C237C002B0FD0382B77
:101360000ED1164D280000F079F8CC23AC222800CD
:10137000217C9B0100F02DF9280000F0ADF870BD34
:10138000E3890F4A934209D10C4D280000F066F81A
:1013900000222800217C00F00BF9EDE7094A934276
:1013A000EDD1064D280000F059F890222800217C4C
:1013B000920100F02CF9DFE7202BFF1F8427FF1F8D
:1013C000830500008320000070B5174C237C002BA0
:1013D00005D1FFF77BFE0124FEF73CFF1DE06369AA
:1013E000002BF6D0114D280000F038F86369280072
:1013F00098470400280000F06FF8002C02D0FFF797
:1014000065FEE9E70A4B0422995E002907DA9C8011
:101410001A8801321A80FFF759FE200070BD054A74
:101420009142F5DD9A80F3E7202BFF1F8427FF1FF1
:10143000382BFF1F0F27000010B58024064AA40098
:101440001168436B234205D113685B1A032BF8D94B
:10145000012010BD0020FCE76008FF1F70B5C179B6
:1014600005000C00631E9C411A4BE402E41849007D
:101470000460C9B2007906F061FBE9796879490036
:101480000131C9B206F05AFBE8790930C0B208F060
:1014900077F80023E36661332360AA795B3B002A77
:1014A0000ED022689A43023B134323600A23E36170
:1014B0000733236200232363A3630133E36370BD17
:1014C00022689A4302231343236046236361063351
:1014D000A361EFE70050004070B5002504000368E9
:1014E000DD66C0790930C0B207F07AFE29002079A4
:1014F00006F0C0FA2900607906F0BCFA70BD000061
:10150000F8B51E0006AB1D78002304681700E366DB
:10151000616007F00DFE01238022E3662B00276146
:101520005200013B08D207F093FF08200A4A1168D5
:10153000002D03D12800F8BD2261F2E7236F03429A
:1015400003D02369013D3370013613685B1A032B06
:10155000EED90125EEE7C0466008FF1F70B51C00FC
:10156000002305681600EB66696007F0E1FD0123C2
:101570008022EB6623005200013B08D207F068FF8F
:1015800008200A4A1168002C03D1200070BD2A618E
:10159000F2E72B6F034203D02B69013C3370013615
:1015A00013685B1A032BEED90124EEE76008FF1FD6
:1015B000002370B504681500E366616007F0B8FDAC
:1015C0000123E366256107F043FF2000FFF734FFA6
:1015D00070BD70B51D00002304681600E3666160ED
:1015E00007F0A6FD0123E36626610F33626B1A4202
:1015F000FCD02B0A23611023626B1A42FCD0EDB29F
:10160000256107F025FF2000FFF716FF70BD0023BE
:1016100070B504681500E366616007F089FD012379
:10162000E3662B0A23611023626B1A42FCD0EDB2F1
:10163000256107F00DFF2000FFF7FEFE70BD70B5BD
:101640001E00002305681400EB66696007F070FD5A
:101650000123A619EB660F33B44205D107F0F8FE5B
:101660002800FFF7E9FE70BD21782961696B1942F6
:10167000FCD00134F0E70000F0B5184A936A916A93
:101680009942FBD116498A689A421FD39A1A8B60F5
:10169000144B4C68186893B2D2024343D20E4243B3
:1016A0001B0A08681B1912029B180024020001275C
:1016B0000D4D4B60561CAB420BD8002C01D01000D6
:1016C0000CC10A4A13600A4B1860F0BD581E821AFA
:1016D000DDE7084A3C009B183200EBE700F00040D1
:1016E000682BFF1F140AFF1F40420F00C8F0004084
:1016F000CCF00040C0BDF0FF70B51E4C23793F2BED
:1017000001D93F2323711C4A13701078C0B207F02F
:10171000FFFD1823194A1A4913801A4A0B801380B7
:101720004B80A0790C3B421C534380221201934210
:101730001ED81A00144D888028801448CB8002805F
:101740006279002A01D101326271237A012B01D81A
:101750000223237253430E480A21584307F040FEE8
:101760000C4D2860E379052B01D81023E37170BD7F
:101770001300DFE75C2BFF1F480AFF1F9E27FF1F98
:101780004429FF1F9C27FF1F9A27FF1F9827FF1F31
:1017900071020000442BFF1F10B50C2202480349C0
:1017A000FEF71EFE10BDC0465C2BFF1FFC0C0000A8
:1017B00010B5C3060BD501F0F7FC0221084B1A78CF
:1017C0008A431A7000225A7000F0B4FC10BDC005A4
:1017D000FCD5044B1A6888235B001A42EDD1EAE776
:1017E000582BFF1F5C2BFF1FF0B5002705000E00D4
:1017F000140085B0BA4217D04A1C0B7800924A7880
:10180000897809021143F27812040A43317903708E
:1018100009061143019103914770BB4207D10C2285
:10182000B54907F0CDFC0C37380005B0F0BD552B9D
:101830001DD1621EB14E0C2A17D8002A0ED037686F
:10184000019B00997B401F00300007F0B9FC380075
:10185000FFF7AEFFFFF750FFFFF79EFF0C223100AE
:10186000681C07F0ADFC0D27DEE70C22E7E7562BDE
:1018700011D1A24CA24B20681A6850402200C2CB62
:10188000C2C2FFF795FFFFF737FFFFF785FF0C2276
:101890002100681CE5E7252B17D1621E994C0C2A04
:1018A00011D8002A08D00099200007F089FC0C22EA
:1018B00020009549FEF794FD13222100681C07F0D3
:1018C0007FFC1427B0E70C22EDE7262B08D18D4CC6
:1018D00013223900200007F09BFCFEF7BBFCEBE76E
:1018E000052B06D106228949013007F069FC06273D
:1018F0009AE7442B17D1621E854C112A11D8002A71
:1019000008D00099200007F05BFC112220008149DB
:10191000FEF766FD11222100681C07F051FC12271A
:1019200082E71122EDE7352B18D1022C30D9B2789D
:10193000737812021A43784B9A600BD01900774AD9
:1019400021CA21C10022042C03D93279F178120274
:101950000A43DA60FFF700FB002765E7362B0BD15F
:10196000022C15D97378122BF6D1B378342BF3D11E
:1019700001F0EEFC022757E7222B00D1E4E033D838
:10198000072B6BD007D8012B00D11CE1062B6CD0A4
:10199000FF236B70EEE7102B00D1F7E0182BF7D187
:1019A0005F4E112C12D110223000009907F0E0FB9D
:1019B00000280BD010220099300007F001FC102203
:1019C00058493000FEF70CFDFFF7ACF8102230004C
:1019D0005449FEF7C5FD02001028D9D13100681C1A
:1019E00007F0EEFB11271FE7712B45D017D8332BDB
:1019F0005DD0602B5FD0232BCAD1042C05D94A4C73
:101A0000019B236007F05CFCA060FFF735FE042219
:101A1000039003A9681C07F0D3FB052704E7722B8A
:101A20003CD0DC2B00D1EEE0DB2B00D00AE1042C13
:101A3000AED9052C00D102E1671F3A000198711D53
:101A400007F0BEFB05223100280007F0B9FB3A0081
:101A50000199681D07F0B4FB2700E5E6122233491F
:101A6000013007F0ADFB1327DEE6082230490130D4
:101A700007F0A6FB0927D7E6012C0BD07178F029D7
:101A800086D82C4C208802F061F82B4B228852001B
:101A9000D35A7EE7274A284B1288F8E7274B012CB8
:101AA00003D072789A70427064E79B7871E7FFF711
:101AB00005FA0700B8E6621E214E062A06D8002A5B
:101AC00005D10120326001F045FB0CE00622962191
:101AD000154B89001B681B485B180099336007F0A1
:101AE0006FFB01F015FA31000622681C0D3107F07A
:101AF00067FB072798E6C046F89601115C2BFF1F8D
:101B0000EC960111202BFF1FF50C00002C2BFF1F62
:101B10000E2BFF1FF51D0000D42DFF1FE42DFF1F0E
:101B2000AC2AFF1F0DBC0000682BFF1FFA2AFF1F05
:101B3000C428FF1FA027FF1F002EFF1F582BFF1FC9
:101B4000B82DFF1FC52DFF1F621E554E554F082A89
:101B500006D8002A05D10120326001F0FBFA0EE020
:101B600008223800009907F02BFB33894E4A934234
:101B700009D04E4A12689B18336001F05FFA0822C0
:101B80003900681C74E701235B42F5E7484E062CD8
:101B900015D906223000009907F0EAFA00280ED085
:101BA00006220099300007F00BFB06224149300065
:101BB000FEF716FC0123404A91780B4393700622EE
:101BC0003100681C93E73D4AA31E0192132B06D8EF
:101BD0007378002B0BD100F049F900F07FF9384BF6
:101BE00001991F78681C7A1E07F0EAFA1CE6013C8E
:101BF00022000099019807F0E3FA32490198A2B255
:101C0000FEF7EEFBE9E7022C00D8C1E673784370DB
:101C1000B37883706B469F88032C05D0033C390052
:101C2000A2B2F01CFEF7DCFB39001022E81CFEF724
:101C300097FCC71C002800DBF6E568709AE61524BF
:101C40001027FFE6DA2B1FD1042C00D8A0E6082CC1
:101C500017D9B37972791B021343F27912041A432C
:101C6000337A1B061343019A1360019B05221B68FC
:101C700031002800039307F0A3FA0422681D03A98A
:101C8000F6E6FE234370F0E7DE2B00D080E6611E0F
:101C9000012C00D160E6009801F00AF95CE6C0462C
:101CA000B82DFF1FBC2DFF1FFFFF0000682BFF1F7B
:101CB0006509FF1FADAC0000582BFF1F592DFF1FFA
:101CC000572DFF1FAEDE000070470000013870B5D1
:101CD000042809D807F0ECFA030928081200234B5E
:101CE0000221187807F0B4FA70BD204B082118784B
:101CF00007F056FB00221E4B1A74F5E780220024E1
:101D00001B4B1A4D52001A8208211A682878DC747D
:101D100007F036FA2100287807F04AFA012000F08F
:101D2000FBFF01F0F5F8DFE7104B0821187807F00A
:101D300037FB1048FEF78AFF0F4B104A9B790020B3
:101D400093800F4A13808022094B5200D8741A8264
:101D500000F0E2FF01F0DCF80A4B9B78002BC3D0C7
:101D6000094A136007F014FABEE7C046782BFF1F3C
:101D7000442BFF1FA927FF1F5C2BFF1F4429FF1FB8
:101D80009A27FF1F582BFF1F34F0004010B5012980
:101D900007D10F2806D18021054B8900187807F05C
:101DA00057FA10BD0628FCD1014B80211878F6E7C0
:101DB000782BFF1F020010B5094B0A32094C92B272
:101DC000DA815A8298811882207802F023FD042259
:101DD000054B012120781A7007F03AFA10BDC04671
:101DE0004E28FF1FA22DFF1FA12DFF1F10B5054B71
:101DF0001B78002B05D02622034B04485A74FFF7AA
:101E0000D9FF10BD7A2DFF1F442BFF1FC40900000E
:101E100010B5002907D10F2806D18021054B890074
:101E2000187807F015FA10BD0628FCD1014B802167
:101E30001878F6E7782BFF1F0300F0B50A4D8E18CF
:101E4000B14202D152008018F0BD0C782F682409ED
:101E50003C5D0F271C700C7801313C402F683C5DC5
:101E60005C700233ECE7C0469427FF1F0D22124B33
:101E700010B51A700C23114C11492370093A033B19
:101E80001048637007F09CF92D2301220E490F487A
:101E9000A371FFF7D1FF01220D49FFF7CDFF01220A
:101EA0000C49FFF7C9FF030000200B49020018701E
:101EB000FEF796FA10BDC046762DFF1F572DFF1F67
:101EC0008F960111592DFF1F6709FF1F5E2DFF1F00
:101ED0006609FF1F6509FF1FAEDE000070B5134CD9
:101EE000142220001249FEF73BFB431E114D132B19
:101EF00019D8AB78002B16D0431C2B7009236B70BC
:101F000000230019037028780B4B01302900C0B260
:101F1000187007F09DF8297822000139C9B2002015
:101F200006F036FA70BDFFF7A1FFECE7592DFF1F51
:101F3000AEDE0000572DFF1F762DFF1F10B5114B91
:101F40001A781870002A0ED000280BD10E4B1A7880
:101F5000062A07D85423D340DB0703D50B4B187848
:101F600002F058FC10BD0028FCD0074B1B78012B59
:101F700002D0033B022BF5D8044B0121187807F05F
:101F800067F9EFE77A2DFF1FA12DFF1FA22DFF1F7D
:101F900070B5524D524C534E2A00210030700F2024
:101FA00005F08AFE2A002100062005F085FE4E4B32
:101FB0000520197C0123194005F08AFD052005F054
:101FC00069FE01F0F1F8FEF745F907F0E1F90322A7
:101FD00046494748FFF730FF2D24030004221C70B8
:101FE00044490130FFF728FF30230470424D434C31
:101FF000437083702E3B062220004149EB87FEF799
:10200000AFFA062813D0200007F0B2F9022809D051
:102010000321200007F08CFA8D23E3706E3B2371BF
:1020200019336371062220003549FEF7D9F9354B83
:102030001B68FC335C64FFF751FFFEF773FD002063
:10204000FFF77CFF304C314A0121314B1278207868
:1020500002F0A2FB207801242E4A00212E4B127898
:1020600002F09AFB64222D4B20211C702C4B5B79D3
:1020700053431A000A32AB81EA812B826A8230789C
:1020800007F076FA0120404206F0CEF901204042E6
:1020900006F06AFAFFF70EF8FEF740FC00F0C6FD06
:1020A00001204042FEF7CEFE200007F009F8F020A4
:1020B00001F030FD2100307807F0CAF8307802F0E6
:1020C00005FD184806F0E4FFFEF7F4FA164B174931
:1020D0009B68174A5B18936070BDC046111E0111C2
:1020E0008D1D0111782BFF1F0E2BFF1FC428FF1F12
:1020F000FA2AFF1F2C2BFF1F4E28FF1F6509FF1F09
:10210000ADAC0000FC2DFF1FA22DFF1FC827FF1F35
:10211000A927FF1F762DFF1F572DFF1F482DFF1FDB
:102120005C2BFF1F7A2BFF1F682BFF1F0000B8FCE2
:10213000442BFF1F8822084B52001B6810B5134028
:10214000103A934206D18021044B054A1878C90001
:1021500006F0AEFF10BDC0465C2BFF1F782BFF1FA3
:1021600060EA0000F8B50A0020230D001A40194269
:1021700000D17BE0B94B1B78002B1DD0FFF77CFA18
:10218000B74CE37C002B4AD1E121B64BA2689B6897
:10219000B54E9A1A89048A4211D3A3600123E374CD
:1021A000F3796374B14C2000FEF750FD210007F075
:1021B00097F95020FFF7FEFD20206840F8BD6168C8
:1021C000727A591AD203914202D36360FEF772FA0F
:1021D000327A217C531EDBB2994205D1FFF7BAF85F
:1021E000002000F0B7FF1AE09142F9D300272774CE
:1021F000FFF7EAF8A37CBB4202D0A774FEF7ECFA23
:10220000012000F0A7FFB37A002B01D001F028F9DC
:10221000964E3000FEF71AFD310007F061F9637C3D
:10222000002B1FD0013BDBB26374002B1AD1E27C80
:10223000002A11D0A27CE374002A02D0A374FEF716
:10224000CBFA8B4A894E1388300001331380FEF796
:10225000FDFC310007F044F9834B5879642358435F
:10226000FFF7A8FD237C01332374A5E70BB2002BF5
:102270000ADA804B187806F0C3FF002801D007F077
:102280009FF88020000298E70224214206D0744B78
:1022900001201A74FFF752FE20008EE70B0723D5AA
:1022A000FFF7EAF96F4B6E496F4C98684A68637A9A
:1022B000821ADB039A4202D34860FEF7FBF9FFF76C
:1022C00083F8FFF747F8012000F044FFA37A002BC2
:1022D00001D001F0C5F800F0C3FC2368DB0701D58D
:1022E000FEF732FE082068E71026314209D0FEF7DB
:1022F00073FA5A4B1B78002B01D1FEF723FB1020F9
:102300005BE70124214209D05B4800F049F907F05E
:10231000AFF800F023FEFFF70DFFBDE70B0640D539
:10232000062005F0A1FA524B5A7A110021400028EC
:1023300029D02243002929D14949CA680132CA60FB
:1023400001210200587A0A4088431043434A5872D8
:1023500012784548002A1CD01A88444C52181A801A
:102360003F4BD974C27945495A743E4A200092685D
:1023700052189A60FEF76AFC210007F0B1F850206D
:10238000FFF718FD03E00029DAD1A2435A7280203A
:1023900013E703680B42FAD0FFF76EF9FEF7D4FD9E
:1023A000F5E74B0532D53048016831420BD1344C4A
:1023B0006378002B0AD1C90505D52278023313436F
:1023C000237000F08FFD8020C000F6E6012B14D1B1
:1023D00040224A400260920702D5227813432370BC
:1023E000012000F0B7FE022380216370214B254AB3
:1023F0001878C90006F05CFEE5E70323012263704C
:10240000214B52421A6000F0BFFDDCE78B0565D519
:102410000F2005F029FA144C23681E40002837D1FC
:10242000002E0DD1164ADB050DD5022113780B4283
:1024300009D08B43137000F0B7FE012000F08AFE34
:1024400080208000B9E6012353700A4B0F4A1878A8
:102450008021C90006F02CFEF2E7C0467A2DFF1F4E
:10246000442BFF1F682BFF1F5C2BFF1FA927FF1F9B
:10247000382BFF1F782BFF1F8C27FF1F000082FCCB
:10248000582BFF1F10270000B82DFF1FB80B0000AE
:10249000002E20D18021194EC900307806F080FF2F
:1024A000174F7B78012B09D1FFF7A0FC00237B702D
:1024B0002368DB05C4D53078124AC9E7022B02D164
:1024C000FFF76AF9F2E7032BF0D101220E4B1A60F5
:1024D00006F05EFEEAE7FFF789FCB1E740242142FF
:1024E00002D0FEF739FDD7E604240800204021423F
:1024F00000D163E6FEF7C2FCCEE6C046782BFF1F94
:10250000582BFF1F60EA000034F00040F0B51A4B72
:102510001A4F1B883A880400194E1A4D85B09A420A
:102520000DD832889A420AD3174B1A882B889A42C0
:1025300005D1164A164B12881B889A421AD00520DC
:1025400001F03EFB3B8802A90B80338801904B8051
:102550002B88104D8B800E4B2A781B88CB800E4B1E
:10256000188803F05FF80D4B08212878019A1C7039
:1025700006F09EFD05B0F0BD462DFF1F9E27FF1FF4
:102580009C27FF1F9A27FF1F442DFF1F422DFF1F6F
:102590009827FF1FA22DFF1FA027FF1F402DFF1F01
:1025A00013B50C4B1C78002C11D1002801D00A4B1C
:1025B00018600A4A0A4B11780A4A10780A4A0192AE
:1025C0000A4A0092002205F0DBFD200016BD11240E
:1025D000FBE7C046A12DFF1F3C2DFF1FA02DFF1FB5
:1025E000902DFF1FA22DFF1F7C2DFF1F802DFF1F91
:1025F00010B5064B12201B78052B06D1044B132275
:102600001988044B187801F0B7FC10BDA12DFF1FED
:10261000A027FF1FA22DFF1F10B500240122114B80
:1026200052421870104B1C70104B1A8002F04EFA78
:1026300004220F4B21001A700E480C3206F070FF76
:10264000102221000C4806F06BFF07220B4B1C6088
:102650000B4B1C700B4B1C700B4B1A700B4B1C70F4
:1026600010BDC046A22DFF1FA12DFF1FA027FF1FD9
:10267000A02DFF1F902DFF1F802DFF1F7C2DFF1F02
:10268000562DFF1F552DFF1FA227FF1F542DFF1F83
:10269000F8B5174C0600257806A814240078052DF7
:1026A00023D1B41F134FA5B21824BD421DD88D1FCE
:1026B000ADB2BD4219D8FA256D00AA4215D21D004F
:1026C0000D4F0A3DADB2BD420FD80C4C26800C4CCC
:1026D00021800C4900240A800B4A1380FFF716FF63
:1026E0000A4B0421187806F05BFE2000F8BDC046B6
:1026F000A12DFF1F790C0000750C00009E27FF1F05
:102700009C27FF1F9A27FF1F9827FF1FA22DFF1F3F
:10271000F0B50BB20D0089B0002B00DB70E1A44EC8
:10272000307806F06DFD041E50D00378A22B00D146
:1027300022E1D02B1AD0912B45D143780E2B42D1D8
:102740009C4B82889A423ED19B4B1B78052B3AD1F9
:102750008368032018567F2835D0984B1B68002BC0
:1027600031D05B68002B2ED098472CE0807807286A
:1027700029D806F09DFD0428183F3F74A8D8637837
:10278000002B0CD101218C4B19708D4B1A78002A2B
:102790005BD08C4B307801F0FFFF002855D007222A
:1027A000854B1A7051E061780029F8D1E378002B4D
:1027B00011D0854A854B1278307801F0EDFF6070BA
:1027C0006378002BEBD1200006F0FAFD8020000298
:1027D000684009B0F0BD784B1B78022BF3D0012183
:1027E000307806F045FC0028EAD10121307806F067
:1027F0002FFDE5E76378002BD1D16F4F032807D178
:102800003B78052B02D101333B701EE00223FBE72E
:102810006F4B1A886F4B0293002A0BD01B78002B4A
:1028200003D00121307806F043FC3B78062B04D11D
:10283000013BE9E7029B1A70F7E7042B41D1012124
:10284000029B3078197006F003FD5C4B1B68002B6F
:10285000B9D01B68002BB6D0574A107884E763784C
:10286000554F002B27D10622211D5B4806F0A8FCFE
:1028700062895A4B5A491A80A2895A4B1A80E389B5
:102880000B800521397058490A80584A1380228AE2
:10289000574B1A80574B1B78012B09D11F2001F091
:1028A0008FF9FA22920042430421307806F000FCAE
:1028B0000022484B75E7312B00D070E70022454BD2
:1028C0001A700323A0E706220021434806F028FEE1
:1028D0000023454A04211380444A30781380444A37
:1028E000138006F05DFD0821307806F059FDA379CC
:1028F000083B5A425341304A03331370304B1B7824
:10290000002B06D0334B30781A78002A06D001F01D
:1029100081FF0122314B52421A8096E70121197042
:1029200006F096FCF5E70821307806F039FD63786B
:10293000002B00D047E72C4B2D4F0293E388029ADF
:1029400004211380294B307803932389039A138041
:1029500063893B8006F08CFB002800D033E7264BD0
:102960001B68002B00D12EE7039902983A8809884A
:1029700000881B68984726E74379132B00D022E78D
:102980000389012B0AD11D4B1B78022B06D108218C
:10299000307806F005FDFFF72BFE14E7052001F067
:1029A0000FF908210200307806F082FB0BE7C046E1
:1029B000A22DFF1F05140000A12DFF1F3C2DFF1F9E
:1029C000C827FF1FA927FF1F762DFF1F572DFF1FA9
:1029D000782DFF1F7A2DFF1F492DFF1FA027FF1FF6
:1029E000502DFF1F522DFF1F462DFF1F442DFF1F8F
:1029F000422DFF1F482DFF1F382DFF1F402DFF1FA9
:102A00008020C001014200D0E2E6CB0731D5324B35
:102A10001B78002B1DD0314E05AC3378052B1AD115
:102A2000023B23702E4B21001B7823722D4B1B7809
:102A300063722D4B187801F053FE002809D007204F
:102A40002A4B30701B68002B03D01B68002B00D072
:102A500098470120BCE60E20254B06221B7825490D
:102A60002370254B1B78637002ABC01806F0A8FBDF
:102A7000D8E7022308001840194209D0174B1B78E9
:102A8000052B03D11D4B188806F0FAFA02209FE6A9
:102A90000424214203D0FFF739FD200098E60823E3
:102AA00008001840194200D193E6154B1C78012C00
:102AB00003D0022C0DD008208AE6124B124A13498B
:102AC00013481B881288098800880094FFF7E0FDEE
:102AD000F1E7FFF78DFDEEE77A2DFF1FA12DFF1F18
:102AE000A227FF1F542DFF1FA22DFF1F3C2DFF1FEC
:102AF000562DFF1FA327FF1F552DFF1FA027FF1FC8
:102B0000402DFF1F9827FF1F9A27FF1F9C27FF1F9D
:102B10009E27FF1F10B502A804880B20002C10D19F
:102B2000496808784978090201430C48814209D173
:102B3000022119800A4B59881170DB7800205BB2A2
:102B4000537010BD074C0A20A142FAD1022119800E
:102B5000034B998811705B79F0E7C0466E2A00003C
:102B6000382BFF1F6F2A0000F7B5150008AA16883A
:102B70004A680F4F14785278120222430A24BA424C
:102B800014D10122DBB2019200962A0006F0FAF974
:102B9000041E0BD1074B1B68002B07D068782A78DE
:102BA0000002104342425041013098472000FEBDD0
:102BB00002290000B42DFF1F30B501250379040060
:102BC000BFB02B4225D01449408805F04BFD284268
:102BD0000CD0124B01A95B8D60880B8002234B80C7
:102BE0000F4B00225B888B8002F012FC0D4960883D
:102BF00005F038FDC0070CD50B4B01A91B8800223E
:102C00000B8002234B80064B9B888B80608802F0F0
:102C1000FFFB3FB030BDC046AC2DFF1FCC27FF1FD0
:102C2000382BFF1FA42DFF1F2628FF1F10B50749B3
:102C3000074805F0CDFC0749054805F0C9FC072108
:102C4000054A064805F086FC10BDC046AC2DFF1FA6
:102C5000FFFF0000A42DFF1F04970111CC27FF1FC9
:102C600010B5024803F058FA10BDC046B92B011147
:102C70000E21054B01405A7C0A435A740F2290439F
:102C80009A7C02439A747047B82DFF1F0E21054BA2
:102C900001409A7C0A439A740F2290435A7C024363
:102CA0005A747047B82DFF1F30B50C4B0122DD7BE5
:102CB000302429009143D973197CA14304001440A6
:102CC000640121431974810701D52A43DA7340074F
:102CD00003D51022197C0A431A7430BDB82DFF1F8A
:102CE00030B50C4C0822237C19009143C50701D54F
:102CF0001A43110004220B009343850701D50B00F2
:102D00001343104203D080221343237430BD7F222B
:102D10001340FAE7B82DFF1F10B5054B0124997C2D
:102D20000A00A243002801D022000A439A7410BD71
:102D3000B82DFF1F10B5054B4024197C0A00A24393
:102D4000002801D022000A431A7410BDB82DFF1FBD
:102D5000F8B50123364C0500E27B217C1A40E27372
:102D60000A009A4300202274FA226073A073D200F2
:102D7000954204DB6D3363734E3BA373F8BD2D4A5C
:102D8000954203DA702363733A3BF6E7AAB22A4E00
:102D90001700B4465F37BFB2284E67451CD9002DD7
:102DA00003DA52420B4315B22374681D0A2100B2A4
:102DB00006F016FB224B07B29D4227DC3D000A219C
:102DC000280006F00DFB0A2100B206F051FA09B204
:102DD000735CA27B134309E0A373002D0FDA524208
:102DE0000B4315B223740023092DE8DCA3730A21D9
:102DF000280006F03DFA09B2735CE373BEE7FA22DD
:102E00002074920095420FDB63732F006421380019
:102E100006F0E6FA0A2100B206F02AFA09B2627B4D
:102E2000735C13436373C9E7632DDCDDEDE7C046D4
:102E3000B82DFF1F31F8FFFF2A0800002B97011162
:102E4000E2030000184B70B5597401219A7C04000C
:102E50000A409A74632806DD6E20FFF717FF2020D2
:102E6000FFF706FF70BD0100093104DA7020FFF79B
:102E70000DFF3620F4E70D4D00280BDA0421444203
:102E80000A4324B29A740A21200006F0F1F909B22B
:102E9000685CE5E70928F6DD0A2106F0A1FA00B230
:102EA000285CFFF7F3FEEEE7B82DFF1F2B9701110B
:102EB000F8B50A4F05003B7B0E00002B0CD0084CE8
:102EC0002000FEF7CBFA33002A002000397BFEF702
:102ED000B6FB2000FEF700FBF8BDC046B82DFF1F73
:102EE0004028FF1F10B5084B1B7B002B0BD0074C55
:102EF0002000FEF7B3FAD0223E212000FEF758FB57
:102F00002000FEF7E9FA10BDB82DFF1F4028FF1F73
:102F100070B50D4B1B7B002B15D00C4B1B68DB06D3
:102F200011D40B4D0B4C06222900200006F020F98D
:102F3000002808D029000622200006F041F90721C8
:102F40000548FFF7B5FF70BDB82DFF1F5C2BFF1FB5
:102F5000C52DFF1FCC2DFF1FCB2DFF1FEE22084BD1
:102F600010B55A73074ABC20DA8100221A829A747B
:102F7000FFF78CFE0A20FFF77BFEFFF7C9FF10BDAD
:102F8000B82DFF1FECECFFFF2422084B10B55A733D
:102F9000074AF420DA8100221A74FFF777FE7420C2
:102FA000FFF766FEFFF7B4FF10BDC046B82DFF1F48
:102FB000F4D6FFFFF8B51E4B3C21186806F0C8F8A0
:102FC0003C21040006F06CFA20000E003C2106F0C3
:102FD000BFF8182106F064FA0F000A21380006F045
:102FE000B7F8144D144C2B5C0A213800637306F0BB
:102FF00057FA6B5C40210022A373237CE2730B40E1
:103000002374A37C627401321340A37430003639F8
:1030100006F09EF8285CFFF739FE30000A2106F022
:103020003FFA685CFFF724FEFFF772FFF8BDC04669
:10303000682BFF1F2B970111B82DFF1F10B50E4CE9
:103040000423E05EFFF784FEA17A0623E05E090711
:10305000C90FFFF7F7FEA07AC006C00FFFF76AFEA0
:10306000A07A4007400FFFF73BFEA07A4009FFF728
:103070001BFEFFF74DFF10BDB82DFF1F70B5314B84
:10308000314C1D680223E05E6B0641D509233221D5
:10309000584306F0A5F94130FF3000B2FFF758FE63
:1030A0000520FFF701FE0422A35E284A6320934215
:1030B00005DC32331800642106F092F900B20121D8
:1030C000FFF7C0FE13220020237A9A424041C0B28B
:1030D000FFF730FE08212800042308401D4228D0B5
:1030E000627A1340002821D00A40002B19D0012019
:1030F000002A00D00520FFF7F3FD154B187805389E
:1031000043425841C0B2FFF707FEFFF701FF70BD11
:103110000A21053006F064F900B2FFF719FE03201A
:10312000BFE70220002AE6D00620E4E7002BE1D129
:10313000FAE7002803D0637A07200B42DBD1002096
:10314000D9E7C0465C2BFF1F382BFF1FDD26000090
:10315000A12DFF1F104B10B51B68DA0615D40F49BF
:103160000F4A0968126891420FD39B070ED50121BF
:103170000C000C480378DA07D20F94438B432343A7
:1031800003708A4204D0FFF715FF10BD0028FCD061
:10319000FFF774FFF9E7C0465C2BFF1F682BFF1F8A
:1031A000B82DFF1F582BFF1F70B50025144C2000B1
:1031B000A571FEF753F90D233E212000114AFEF7B9
:1031C0003EFAA8420FD1104B1B68DA0605D4DB0586
:1031D00008D50E4B1B789B0704D5D0223E2120003A
:1031E000FEF7E6F93E250A4E20003573FEF774F926
:1031F0000B23062200210748F37406F009F870BD7E
:103200004028FF1F1E9701115C2BFF1F582BFF1F2B
:10321000B82DFF1FCC2DFF1F882370B5040B5B0555
:103220002403E518280006F0C3F82800044906F036
:103230008FF80022034B06341C605A6070BDC046F4
:10324000DEC0AA55E42DFF1F13B500236A46000B0C
:10325000D3800D4B0403E0186B460222991D05F044
:103260001FFF80235B01F822E018C023D2029B02DB
:10327000904204D2984203D2F620C00200E0180027
:10328000FFF7CAFF13BDC0460400001110B50028A7
:103290000AD0064C2368002B06D18023DB00206077
:1032A000636006F00DF8A06010BDC046682BFF1FDC
:1032B000F0B50023C024F827224E87B0A402736023
:1032C000FF02882304AD5B050622E118280005F003
:1032D00077FF1D4B049A9A4205D02000FFF79CFF10
:1032E00020E0019CEDE780235B01E3180193AA88AD
:1032F000164B9A4220D10027A51D019B9D4203D366
:103300002000FFF7A1FF0AE088235B05E9180422EB
:1033100003A805F055FF039B5A1C05D13560380002
:10332000FFF7B4FF07B0F0BD9F4200D21F007368E3
:103330000A3501337360E0E7019BBB42D1D1C02065
:103340008002CBE7E42DFF1FDEC0AA55FFFF00007F
:1033500000220B4B10B50B4C5A600B4B22689A4263
:1033600002D1200006F024F880235B01E418074B0B
:103370009C42F2D1C0208002FFF74EFF10BDC04634
:10338000E42DFF1F00100311DEC0AA5500C0071175
:103390001F4BF7B51C685B68240B0D0024038342A8
:1033A00034D2C61A1B4BE418C0239B029C4201D2A4
:1033B000F624E402CD23C0225B0092029E421CD27E
:1033C00088235B050622E118684605F0F9FE124BDA
:1033D000009A6F4600209A420ED1BB8883420BD1DF
:1033E0009A23FF339B1B0A2253430C49280064187D
:1033F000191905F0E5FE0120FEBD06499A3E641844
:10340000FF3E9442DAD2F624E402D7E71B1AEAE739
:10341000D42DFF1F00F0FFFFDEC0AA5506000011EB
:10342000352370B50D4D03700400E868AB680130BA
:10343000E860984205D9002303206370A370AB6055
:1034400070BDE11CFFF7A4FF0028F4D0EB680D204D
:103450006370EB681B0AA370F2E7C046D42DFF1F10
:10346000F0B52D4B87B09A7A2C4B0221585E04217F
:103470005E5ED988012A24D103AB9880DE80198151
:10348000274B284D1B682C680393002C02D1FFF7B3
:103490000FFF2C6888235B050A22E01803A905F0BA
:1034A000FFFDCC226B6828685200934205D280222F
:1034B0000A3444405201944228D3FFF7C5FE07B0B6
:1034C000F0BD194C6368E568C018A3680135F618AB
:1034D00023686060CB18A66001932360E560954285
:1034E000EDD3290005F07CFF03AF2900B880300040
:1034F00005F02EFE2900F880019805F029FE102223
:1035000038810021200005F083FEB9E701330A303D
:103510006B602860D3E7C0465C2BFF1F382BFF1F72
:10352000682BFF1FE42DFF1FEC2DFF1F10B5034C70
:103530000B000122210000F06BFA10BDED360111E5
:103540000B8870B506000D000224162B11D92B0034
:103550000322094900F05CFA041E0AD1074B2A88AD
:103560001B88191C934200D9111C300089B200F04D
:10357000EDFA200070BDC04619370111022EFF1F61
:1035800010B54A780400013A0B000220012A07D83E
:103590000A78002A04D005222000024900F038FAF7
:1035A00010BDC046473701110A7810B50B00040062
:1035B0000220002A04D007222000024900F028FA45
:1035C00010BDC046F33701110A7810B50B00040096
:1035D0000220002A04D009222000024900F018FA33
:1035E00010BDC0465938011110B5034C0B000B2219
:1035F000210000F00DFA10BD8938011110B5034CFF
:103600000B000D22210000F003FA10BDFB38011160
:1036100010B5034C0B000F22210000F0F9F910BD8A
:10362000553901110A7810B50B0004000220002A58
:1036300004D011222000024900F0EAF910BDC04672
:1036400065390111002310B51322190000F0E0F9CB
:1036500010BD000010B5034C0B001722210000F034
:10366000D7F910BDB7390111002310B5192219007F
:1036700000F0CEF910BD000010B5034C0B001B226A
:10368000210000F0C5F910BDF1390111F7B58489A9
:103690000D0006000121002C22D000238268D356A1
:1036A0001778002B1EDA0C2C1AD90C3CA4B2131973
:1036B00040880093230002F090FE431E98410130A1
:1036C0007B06DB0F6B703F23013C1F40A4B22870C8
:1036D000AF70AC80002C07D0B3680133AB60002121
:1036E0000800FEBD0020EBE7AC60F8E70B78037044
:1036F0004B8843704B881B0A83700B79C37004207E
:1037000070470420022B06D10020537811781B0249
:10371000009A0B43138070470B8803700B881B0AB9
:103720004370022070470420009983420AD15378E5
:1037300010781B0203430B80D37890781B0203435D
:1037400000204B807047F8B50D004B780124002114
:10375000461C03702B788B4201D82000F8BD6B7893
:10376000B01C4F1C012B10D1890069184B88022214
:1037700033704B88B9001B0A7370691805F050FE4E
:1037800004360434A4B2F9B2E4E7122359436B18A7
:103790005A88043132705B8810221B0A73706918D2
:1037A00005F03EFE12361234ECE770B5049D1400AD
:1037B0001E00052B01D8042070BD637812781B020F
:1037C00013432B80E378A2781B02134302226B8001
:1037D0002A71211D681D063E05F022FEB2B22A8123
:1037E000E92AE8D82800A11D0A3005F019FE0020BA
:1037F000E2E7002310B50A789A4201D8900010BD84
:103800009A008A185488013304705488DBB2240A61
:103810004470948884709288120AC2700430EAE777
:1038200010B51100029C062B04D004201022142B8A
:1038300001D010BD022222714B7808781B0203438D
:103840002380CB7888781B02034363800431601D9A
:1038500005F0E6FD0020ECE710B50C788B7804311C
:103860005C43E4B203702200013005F0D9FD601C16
:1038700010BD0420022B06D10020537811781B02C2
:10388000009A0B431380704710B50C000A88023170
:1038900005F0C6FD208810BD70B504000D00049829
:1038A0001100012B01D8042070BD16785278120245
:1038B000324302800200F13255701470E125002C71
:1038C00000D10C35023B9AB24280AA42EBD80231B9
:1038D000043005F0A5FD0020E6E7042000998342AE
:1038E0000AD1537810781B0203430B80D378907869
:1038F0001B02034300204B80704710B50C000A8860
:10390000023105F08DFD208810BD000070B5012149
:103910001E000420049C0E400B4218D1CB40DDB2A7
:103920008D4214D90A49DBB2098899420FD323008A
:10393000EE331D703300580011184978165C0902E7
:10394000314301332152D9B28D42F4D8002070BDE9
:103950004828FF1F10B50C000A88023105F060FDF1
:10396000208810BD10B50C788B7804315C43E4B22C
:1039700003702200013005F053FD601C10BD10B52E
:1039800011000298032B01D8042010BD147852783E
:10399000043B120222430280CA788C78120222432E
:1039A00042809AB28280EB2AEED80431063005F0CC
:1039B00037FD0020E9E710B50C000B8803700B8879
:1039C0001B0A43704B8883704B881B0AC3708A881C
:1039D0000430063105F024FDA088043080B210BD0B
:1039E0000420012B03D100201378009A1370704734
:1039F00010B50C000B8803700B881B0A43704A88B3
:103A00000230043105F00CFD6088023080B210BD38
:103A1000F0B589B003931D4B029242000700D05AC3
:103A2000019102F022F81325061E2CD0029B0124DE
:103A30000370019B002B04D00019039998470019CB
:103A400084B26B461B7A5BB2002B0FDA1021380070
:103A500002F01CFB1925002812D130003219E1B206
:103A600002F070FC051E0BD10C34A4B2042305A98E
:103A700038000B800C814E6001F0B2FD051E02D0B3
:103A8000300005F025FC280009B0F0BD002EFF1F16
:103A900070B505000C0000280CD00020814209D030
:103AA00010222000044905F0BBFC01202B78237371
:103AB0006B78637370BDC0463B970111F0B506008B
:103AC0000D0017001C0085B002291BD00020102912
:103AD00007D1022B07D0102B03D115E00020102CAA
:103AE00008D005B0F0BD69463800FFF7D1FF2A00C5
:103AF00069460BE069463000FFF7CAFF22006946BD
:103B0000380004E0022BE9D12A003900300005F02A
:103B10007FFCE6E7031CF02800D9F02303200849C6
:103B20009AB2013A0B80D317034006499B189B10A9
:103B30000B80D30F04499B185B100B807047C04665
:103B40004C28FF1F4A28FF1F4828FF1F034B1B88D4
:103B50008B4202D3024B4000C15270474C28FF1FDA
:103B6000002EFF1F014B4000185A7047002EFF1F08
:103B70001722014B1A807047002EFF1F70B50500F9
:103B80000E2005F06DFA041E13D0D023037000231D
:103B90000622837007494570033005F041FC064B4F
:103BA0002100DA8A62811B7E2373044B187805F0AA
:103BB000FFFC70BD1C2EFF1F0C2EFF1F9C28FF1F3B
:103BC000262803D8024B4000C05A70470148FCE742
:103BD0004E28FF1FFFFF000070B506000C00094DC6
:103BE0001C220021280005F09BFC074B1E70074B90
:103BF0001C7005F0ADFC0123002801D00023122029
:103C00002B7070BD0C2EFF1F9C28FF1F2D2EFF1F39
:103C100070B505000D4C0800E260A1601022002183
:103C2000656005F055FC012803D11021A06802F061
:103C300061FD10220021280005F04AFC012803D173
:103C40001021606802F056FD70BDC0460C2EFF1FAB
:103C500070B5041E05D1002903D006220D4805F0D9
:103C6000DFFB0D4B1D78012D11D1002C05D1022257
:103C70001A7005F0ADFA280070BD00221A70074BCB
:103C80001B78FF2BF7D02000FFF778FFF3E7002524
:103C9000F1E7C0461C2EFF1F0C2EFF1F9C28FF1FA4
:103CA000030010B5002801D1002010BD00780B4A98
:103CB000002803D15988D1821B7913761378022BFF
:103CC000F2D10023984200D103331370044B1B78C8
:103CD000FF2B01D0FFF752FF0120E6E70C2EFF1F5C
:103CE0009C28FF1F002911D000280CD04B790128F7
:103CF00003D140225242134303E03F2213400328E2
:103D000002D001204B7170474022F4E70800FAE727
:103D100070B5094D0100287800280BD0074C062209
:103D2000200005F07DFB21002878FFF7DBFF200055
:103D300005F0C6FB70BDC0462C2EFF1F062EFF1FD0
:103D400000290AD0012808D13F224B799343C02B88
:103D500003D0403B5A425341981C704770B5174DF1
:103D600006002B78FF2B15D00A2005F079F9041EE8
:103D700010D0D0230370C83B8370114B11491B78BE
:103D80004670C3700622043005F04AFB21002878F3
:103D900005F00EFC0C4B1B78012B0DD10B4B1B6857
:103DA000002B03D09B68002B00D09847084B0421C0
:103DB0001878084A05F0E4F970BDC0469C28FF1F3A
:103DC0002C2EFF1F062EFF1F282EFF1F542EFF1F15
:103DD000582EFF1F60EA0000014B98687047C046EC
:103DE0000C2EFF1F014BDB68186870470C2EFF1F5D
:103DF000074B10B5DA68136801331360054B187868
:103E0000FF2803D08021C90105F022FA10BDC04669
:103E10000C2EFF1F9C28FF1FF7B50E0002F0CAF8FA
:103E2000051E1CD00E4B06621F78002F00D10778AC
:103E3000AB791020019305F013F9041E0FD0D023A5
:103E40000380C73B8370019BE91DC37006220430C9
:103E500005F0E6FA21003800E66005F0A9FBF7BDA1
:103E60009A28FF1F014B18787047C0462C2EFF1F61
:103E7000054B002805D1054B1A78054B002A00D1C7
:103E8000014B18007047C0461C2EFF1F2C2EFF1F31
:103E9000062EFF1F014B58687047C0460C2EFF1FAF
:103EA000024B1868431E9841C0B27047302EFF1F66
:103EB000421E03000120152A03D9FF3B5A425341F9
:103EC000D8B27047F0B51C0000230E0085B00390F7
:103ED00002920B70029A934201D3002019E0E55C34
:103EE0005A1CD2B2002DF8D0029851198142F4DC4C
:103EF0000233DFB2A35C18000193FFF7D9FF00285B
:103F000007D0013D019A0399EBB233708A4202D186
:103F1000E01905B0F0BDDB19DBB2DBE710B50C0032
:103F200002F0A0F803001220002B03D021005888D3
:103F300005F04EFA10BD000070B50E4D84006359B7
:103F4000002B15D0186A002801D005F019FA2B595A
:103F5000586A002801D005F013FA2B59986A0028F6
:103F600001D005F00DFA285905F00AFA00232B516B
:103F700070BDC0463C2EFF1F1C4B70B504000E00E8
:103F8000150099420AD11A4B1B68002B01D112204F
:103F900070BD1B68002BFAD09847F9E7154B994282
:103FA00015D1134B1B68002B0AD01B68002B07D0C0
:103FB0009847002804D1104B1C70104B1D70E7E788
:103FC00029002000FFF7AAFF0028E1D1F3E708004D
:103FD00001F0F0FF0028DAD003780320A342D7D104
:103FE0002900300005F0F4F9D2E7C046FEFF0000DA
:103FF000382EFF1FFFFF0000352EFF1F342EFF1F3E
:10400000F7B50400808801F0D5FF0025A84203D051
:104010000578A08802F00AF81C4E3378002B1FD0D8
:10402000AB421DD11A4B28001978FFF777FF002803
:1040300018D000233370A3790820A778A6880193AD
:1040400005F00EF8011E0DD0D0230370CA3B83701B
:10405000019B477086808371280005F0A9FA01E072
:10406000002DE8D1A0880B4B8200D358002B01D043
:10407000FFF762FF1721A088FFF768FDA08801F015
:104080002BFDA08801F002FEF7BDC046352EFF1FB4
:10409000342EFF1F3C2EFF1FF0B587B01D000CAB68
:1040A0001B88070001930DAB1B88142002930EABF5
:1040B0001B88160003930FAB1B880091049310AB71
:1040C0001B88059304F0CCFF041E1AD0D023037084
:1040D000CB3B47708370C670062229000430002D48
:1040E00011D005F09DF9019B21006381029B00988E
:1040F000A381039BE381049B2382059BA37405F0AA
:1041000057FA07B0F0BD05F00BFAECE7F7B50093EE
:1041100008AB1B8807000C200D001600019304F06B
:104120009FFF041E13D0280001F044FF00280FD089
:104130000078D0232370C93BA370009B210023810A
:10414000019B6770A580E680638105F031FAF7BDB9
:10415000014B1878EDE7C0469C28FF1F13B50400FB
:1041600064890389C2888188C0780094FFF7CEFFF4
:1041700013BD000010B5044C2068002803D005F0E2
:10418000FFF80023236010BD402EFF1FA122F0B5D1
:10419000818892004A43384B384F1B6889B09B187E
:1041A0009D2292009B18827904001A603B68002BC4
:1041B0005FD01D78324B1B68002B04D05B68002B4E
:1041C00001D000209847260008363100E079FFF73B
:1041D000B7FD237DE0710200E0780493638A290033
:1041E0000393238A0293E3890193A3880093330006
:1041F000FFF752FFE378002B0BD1E289A379A18866
:1042000002920196E27928000092012201F0DCFE80
:10421000E0703B68002B20D0FFF7ACFF194D2878E9
:1042200000281AD0184B1978FFF778FE002814D010
:104230002B780820A788E678079304F011FF011E69
:1042400009D0D0230370CA3B467083708780867183
:10425000079805F0ADF900232B701721A088FFF710
:1042600075FCA08801F038FCA08801F00FFD09B0B2
:10427000F0BD064B9DE7C0463409FF1F402EFF1FCF
:10428000542EFF1F352EFF1F342EFF1F9C28FF1FAB
:10429000F8B5070008000E0001F08CFE041E18D0CF
:1042A0002620FFF78DFC051E00D12578062004F09E
:1042B000D7FE041E0DD00021062205F031F9D023CF
:1042C0002370C23B21006770A370A680E8B205F09E
:1042D0006FF9F8BDF0B585B001930AAB1B78070004
:1042E00002930BAB1B7808000D000092039301F0C2
:1042F00061FE061E22D0102004F0B2FE041E1DD066
:104300001022002105F00CF92620FFF759FC0028A7
:1043100000D13078D0232370C13BA370009B2100D3
:104320002372019B67706372029BA580A372039B3B
:10433000C0B2E3720C9BE36005F03AF905B0F0BD42
:10434000F7B50D00019001F035FE071E1FD00E20BD
:1043500004F086FE041E1AD02620FFF731FC061E4C
:1043600000D13E78D0232380C53BA370F91D0622DF
:10437000E01C05F055F8019B2100638101232B40CF
:10438000AD07ED0F23736573F0B205F011F9F7BDBA
:10439000F0B585B0029010000D0017000A9E03933F
:1043A00001F008FE041E31D0029B002B2ED1039B8E
:1043B00002795B0724D5122313430422002E08D16F
:1043C0000B99002905D10C99002902D10D990029DA
:1043D0001AD01A430D9B2271002B00D0C9E0002E89
:1043E00000D1CFE0002D00D0CCE0606A002801D0E1
:1043F00004F0C6FF1C21300004F0FAFE606205E004
:1044000002239A430E33D7E793432371654BBA00D7
:10441000D458002C00D1AAE0002E10D0236A002B23
:1044200003D11C2004F01CFF20625E4BBA00D3585D
:10443000186A002803D01C22310004F0F1FF0C9B05
:10444000002B12D0574CBB001D596B6A002B03D1B7
:10445000162004F005FF6862BB00E358586A002884
:1044600003D016220C9904F0DBFF0D9B002B11D01A
:104470004C4DBC006659B36A002B03D1142004F0E4
:10448000EFFEB0622B59986A002803D014220D99D0
:1044900004F0C6FF380001F08DFD051E67D0414BCA
:1044A000BA00D358002B62D01A6A3420002A00D1F7
:1044B0001C389A6A002A01D0143080B20B9A002A64
:1044C00001D01C3080B25B6A002B01D0163080B264
:1044D00004F0C6FD041E4AD01822002105F020F881
:1044E0002620FFF76DFB0190002801D12B78019366
:1044F000D0232370029B200063700A23294EA370EF
:10450000039BBD00A371AB59A780196A183000291D
:1045100005D01C22A06004F083FF200034307359C2
:10452000996A002907D0030014221433E060029333
:1045300004F076FF02980B9B002B08D003001C228E
:104540001C330B992061029304F06AFF029873599F
:10455000596A002903D01622606104F061FF6B469E
:104560002100187905F024F83800FFF7E5FC05B0C4
:10457000F0BD10220D9B0D991B69A018236204F059
:104580004FFF2CE70B9B002B00D13FE7012D00D004
:104590003CE7606A002801D004F0F2FE1C210B9871
:1045A0002AE7C0463C2EFF1F10B5044C20680028A7
:1045B00003D004F0E5FE0023236010BD302EFF1F62
:1045C0000B4B07B51A68002A01D100200EBD6946C1
:1045D000531C012012780731FFF774FC0028F4D037
:1045E00002780123100018401A42EED0EEE7C046D0
:1045F0004C2EFF1FF0B51F4F01203B6887B0002BEA
:1046000025D09B78059300F0B3FB002821D00A2029
:10461000FFF7D6FA04000B20FFF7D2FA164B05007D
:104620001E78731E9E413B68F6B2191DD878FFF7BD
:1046300059FB3B682900DA7A043303929A79019393
:104640000292009033002000059A04F0F9FE07B0B2
:10465000F0BDFFF7B5FF002805D00620FFF7B0FA40
:1046600004000720D8E70820FFF7AAFA0400092071
:10467000D2E7C046302EFF1F2C2EFF1F70B50A4E0A
:10468000040033780D00FF2B0DD0042004F0E8FC6B
:10469000011E08D0D0230370CE3B45708370C470D8
:1046A000307804F085FF70BDAC28FF1F70B50400A2
:1046B00006200D0004F0D4FC011E0AD0D0230370A4
:1046C000CD3B8370054B44701B688580187804F0DF
:1046D0006FFF002C01D0FFF767FF70BD302EFF1F6A
:1046E000F8B5264F06003B680D001124002B05D1BC
:1046F0000522234B1B78134202D112242000F8BD5F
:10470000204A10241268002AF8D01278002AF5D026
:10471000DB0719D52B789A1E012A1AD80C2004F031
:104720009FFD132438600028E8D000230A2243703C
:1047300029000670023004F073FEFFF75BFF041ED1
:104740000AD0FFF731FFD9E700F012FB0028E1D1D2
:10475000E4E7002BE2D0D0E70B4B1B78032BCDD145
:104760001D20FFF72DFA094B18800028C6D0084BF2
:1047700004211878074A04F003FDBFE7302EFF1F1D
:104780002D2EFF1F4C2EFF1F2C2EFF1F2A2EFF1F2A
:10479000582EFF1F60EA0000F7B50193194B140073
:1047A0001A78052306000F0012201A4221D0012991
:1047B00020D1154B1D68002D1BD002201F2C18D8AE
:1047C000002C02D0019B002B13D0104B1F221E7017
:1047D0006E1C0021300004F0A3FE0199220030007D
:1047E00004F01EFE310020002C70002F06D004F0D3
:1047F000D7FCFEBD064B12201D68DCE704F028FC48
:10480000F7E7C0462D2EFF1F4C2EFF1FAC28FF1FC1
:10481000482EFF1FF8B50F4E12243368002B17D017
:104820001B780F3C834213D100250B4F02213878AF
:1048300004F0B6FD094B042138781D8004F0B0FD6A
:10484000074B28001D8033685C7004F051FD0400A4
:104850002000F8BD302EFF1F582EFF1F442EFF1FD3
:104860002A2EFF1F70B5012823D11B4C2388002B53
:1048700003D01A4A1578002D07D0194B1B68002B5E
:1048800002D01878FFF7C6FF70BD3B2B02D93C3B26
:104890002380F9E7134E0221307804F081FDFA22DB
:1048A0002388920002215A43307804F001FC2580CD
:1048B000EAE70B4B1B68002BE6D00B4B1B785B0722
:1048C000E2D5084B0221187804F06AFD0022024B61
:1048D0001A80FFF769FED7E7442EFF1F282EFF1F1F
:1048E000302EFF1F582EFF1F2D2EFF1FF8B51E4D17
:1048F0002868002803D004F043FD00232B601B4EE2
:104900003068002803D004F03BFD00233360184FCB
:1049100005243B7818002040234221D0154800F0A0
:104920002BFA3B78234213D0202004F099FC286016
:10493000002813D02022002104F0F2FD202004F0F2
:104940008FFC041E306005D02022002104F0E8FD19
:10495000002004E0286804F013FD2C601320F8BD4B
:1049600000F00AFAF4E7C0464C2EFF1F482EFF1F46
:104970002D2EFF1FA028FF1F10B50A4C23681A1EFA
:104980000ED0002808D10130587004F0B1FC002886
:1049900005D02368002B02D00021FFF787FE0122FB
:1049A000100010BD302EFF1FF7B5274E05003368ED
:1049B0000191181E21D05C78244F012C30D1FFF7D3
:1049C000FFFD002825D02000FFF7FAF80400412859
:1049D00014D91F4B022118781E4A04F0D1FB1E4B3C
:1049E0003C3C1C80022233685A703B78002B14D167
:1049F00028000199FFF75AFE0120FEBDFA2292001D
:104A00004243002AEED0124B0221187804F050FBEA
:104A1000E8E7FFF7D5F80200F3E700233B70EBE788
:104A20003B78002BE8D1032004F01AFB011E08D0CC
:104A3000D0230370CC3B457083703368187804F042
:104A4000B7FDFFF7B1FDD7E7302EFF1F282EFF1F60
:104A5000582EFF1F60EA0000442EFF1F10B51749B3
:104A6000838802008B4220D011D815498B4217D081
:104A7000144900205B1899B2012907D8926811786F
:104A80005A425341D8B2FFF7F9FD012010BD0E4A3A
:104A900000209B1807229BB29A424041C0B2F5E722
:104AA00083681878FFF768FFF0E7836899785A7889
:104AB000090218781143FFF777FFE7E70A200000A3
:104AC00006200000F8DFFFFFAFDFFFFF014B18708B
:104AD0007047C046AD28FF1F10B5064C207001F08E
:104AE00045FA207804F0CCFB0521207800F068FD21
:104AF00010BDC046582EFF1F0BB273B50D00002B22
:104B000000DBC4E0884B187804F07AFB041E0ED05A
:104B10000378912B0FD0A22B00D1A1E0834B187802
:104B2000FF2852D0210004F043FD00284DD1802001
:104B30000002684076BD43780F2B76D013D8052B42
:104B400070D00E2BEAD18088794B98422BD8794BC4
:104B500098421BD8784B9842E0D1A3681878591C2A
:104B6000FFF776F838E03E2BD8D18378032B74D04A
:104B70006CD8012B6ED0022BD0D1704B1B68002B50
:104B800023D05B68002B20D098471EE06C4BC018E8
:104B90000C28C3D804F064FC1DC2C2150BC20B0B59
:104BA0000B3223C23C00674BC0180728B6D8664BAF
:104BB0001B68002B09D01B68002B06D020009847EB
:104BC0000AE0A3681878FFF7C9F8200004F0F8FBA2
:104BD000ADE7A068FFF764F800289FD0F5E7A36869
:104BE0001B78002BF1D0554B1B68002BEDD01B68B8
:104BF000002BEAD0210055489847EDE74F4B1B6842
:104C0000002BE2D01B68002BDFD021005048F3E7D7
:104C1000504B1B68002BD8D05B68002BD5D02100EF
:104C20004348E9E7FFF7ECF9CFE780884A4B984221
:104C300003D04A4B984200D070E7464B1B68002BCC
:104C4000C3D05B68002BC0D02100D5E7153B012BFA
:104C5000BBD963E7FFF79AFAB7E7FFF77FFAB4E744
:104C60003F4B1B78042B07D100236A461380017940
:104C7000408800F0CBFCA8E7364B1B68002BA4D083
:104C80005B68002BA1D00100364898479DE70124BE
:104C900021420AD0294B1B68002B04D05B68002BF3
:104CA00001D000209847012043E78B070AD5264B07
:104CB0001B68002B04D05B68002B01D020009847B4
:104CC000022036E70421280008400D4200D131E7D8
:104CD000254E3388002B21D0013B9BB23380002B23
:104CE0001AD1FFF7DDF800280AD0204B1C70164BB4
:104CF0001B68002B04D05B68002B01D02000984774
:104D0000FFF7C8F8694601F00CFD6846FFF700F8A8
:104D10001D20FEF755FF308004200AE7024B18786B
:104D200004F03EFBF8E7C046582EFF1FAD28FF1FDA
:104D30000E2000000120000009100000502EFF1F6F
:104D4000FEDFFFFFAFDFFFFF542EFF1F0C20000030
:104D50000B200000382EFF1F0D2000001320000044
:104D60002D2EFF1FFFFF00002A2EFF1F282EFF1FE2
:104D700010B501F09FF910BD014B18607047C04697
:104D8000542EFF1F0B880020162B01D81723042058
:104D9000014A13807047C046022EFF1F0020704753
:104DA000074A03001188814207D091880020994268
:104DB00002D101308000101870470020FAE7C04689
:104DC000602EFF1FF0B58F7806000D00C5B01E2FB6
:104DD00015D1FFF7E5FF051E03D10024200045B0E3
:104DE000F0BD00223B003100C078009200F0B8FB1B
:104DF0000400A81C00F0D8FBFF23EB70EEE7264B65
:104E0000062403931B78FF2BE8D0182FE6D87B08E5
:104E1000224A013BDB0002929A589446002ADDD0D8
:104E2000029AD3185B68002BD8D00878002802D1EA
:104E30004B78012B02D10624122FCFD107AFAB88BC
:104E4000697800976446AA68A047041EC6D1AB786B
:104E5000029A5B08013BDB00D318390030005B6825
:104E60009847041E0BD1AB78042BB6D0039A3100BF
:104E700010782200009700F073FB0400AEE76A7818
:104E8000002AABD1AA7805A93B88087130000A70C6
:104E90004B80FEF74BFBA0E7B028FF1F4C9701119A
:104EA0001D4B37B5050098420BD000290AD1FFF7FA
:104EB00077FF002805D11948FFF772FF002800D0BE
:104EC000058037BD01291AD1FFF76AFF041EF8D00B
:104ED00001235B420380A378FF2BF2D0FE2B07D087
:104EE0000023E0781422009329001E3300F038FBE1
:104EF000A01C00F059FB01235B426380E1E702291B
:104F0000DFD1013901F0C2F80028DAD12800FFF71B
:104F100047FF041EDFD1D4E7FEFF0000FFFF0000C3
:104F2000022210B5074B52421A80074801325A80BC
:104F30009A80DA8000F084FA044801F029F8002011
:104F400010BDC046602EFF1FC54D0111A14E0111BD
:104F50000388F7B50400002B02D102252800FEBD0E
:104F600042680221137825485268FEF7A7FD002801
:104F70002ED0234F01253A88002AEFD080232188A4
:104F80005B0201259B1A9942E8DC0C2004F068F9C9
:104F9000061E31D03B8822889C46002318000195CC
:104FA00061469DB2491989B2AA421BD8002801D096
:104FB00062443A8000233000082208C0210004F037
:104FC0002FFA104A1368002B13D100251660C5E78D
:104FD0006268022113780C485268FEF76FFD0028C2
:104FE000C7D1BAE760681D014019418101330198BA
:104FF000D6E71A001B68E6E71325AFE7BA97011159
:10500000AE28FF1F5C2EFF1FB8970111014B1870CF
:105010007047C046B028FF1F14230A0010B51A407D
:10502000194204D00122102101F04CF810BD4B06AA
:10503000F9D4C843022340001840F7E710B5140024
:105040008B0604D50122102101F03CF810BD082385
:105050000A001A40194202D14BB2002B0FDA10217C
:1050600001F030F8002808D02300F2331B78002B21
:10507000ECD0F1342378012BE8D10020E6E70320BF
:105080008907FAD4E2E70000F0B51F00184B85B09D
:105090001C68019002910392002C27D1200005B0DA
:1050A000F0BDA5683301ED186B89019A934211D3C5
:1050B000029A93420ED8002F04D10A9B002B10D1E4
:1050C0002C00EBE73B002978039A6868FEF7F6FCB2
:1050D0000028F2D10136B6B2A388B342E1D82468E1
:1050E000DAE7A3680A9A5B891380E9E70026F3E709
:1050F0005C2EFF1F37B50C000A88498801239142B6
:1051000017D3002A15D0651D23792A0002210A48E9
:10511000FEF7D4FC102300280BD023796188208867
:1051200000242A000094FFF7AFFF0A23A04200D01A
:10513000230018003EBDC046BA97011113B50A00FE
:1051400008884988012388420BD8002809D0002408
:10515000137905320094FFF797FF0A23A04200D08D
:105160002300180016BD13B50A00088849880123DA
:1051700088420BD8002809D0002413790532009406
:10518000FFF782FF0A23A04200D02300180016BDBB
:10519000F0B58BB003904A8808880E000123824244
:1051A00013D3002811D00023012704AC2370002260
:1051B000718813000092FFF767FF05002078002D2B
:1051C00006D122780A23002A41D118000BB0F0BD85
:1051D000002835D12B78022B18D167706A8983009B
:1051E0000130E31880005A8069680222201804F018
:1051F00017F923780133DBB22370042B19D93B0054
:105200006889013080B2002BD1D0DAE702236370C5
:10521000122358436A89231804305A80696810227F
:10522000201804F0FDF823780133DBB22370002B43
:10523000E5D10A4A6B899B185A425341DBB2DFE73A
:105240006378012BE4D12B78022BC7D0B9E721007A
:105250000398FEF795F90023B7E7C0460100FFFF6A
:105260000F4BF0B504001868002816D083685D89DC
:10527000A54207D88288AE18B44203DA12019A1800
:10528000934201D10068EFE71E005F891036A74204
:1052900004D1002900D00D801800F0BD3300EFE7E5
:1052A0005C2EFF1F70B505000C0008880021FFF779
:1052B000D7FF03000120002B04D022002800197A18
:1052C000FFF7BCFE70BDF7B50C0000250190230070
:1052D000EE331B78AB4201D800200AE06B00E65A9F
:1052E00000213000E718FFF7BBFF002802D126801D
:1052F0000130FEBD017A0198FFF78EFE002802D032
:105300003B882380F5E70135EDB2E0E710B50400F6
:1053100008880021FFF7A4FF03000120002B03D021
:105320002000197AFFF778FE10BD0000054B1B68BE
:10533000002B01D1180004E09A6852898242F6D10C
:10534000988870475C2EFF1FF0B50E27002687B0A7
:10535000039302ABFF183E8005001F4B40891400E9
:10536000984207D02B78013000976A6880B2FFF727
:105370008BFE060002212B7818486A68FEF79EFB18
:1053800000280FD06C892000FFF7D0FF002802D042
:10539000013C0419A4B2039B002B00D01C803000F8
:1053A00007B0F0BD02212B780D486A68FEF786FB36
:1053B0000028E7D102212B780A486A68FEF77EFBB5
:1053C000002807D0002EDED03B88A342DBD17489B1
:1053D000013CDFE76C89DEE7FFFF0000BA970111AF
:1053E000B8970111B697011110B50C00FFF7D8FC62
:1053F00003000220002B0AD0002C00D023609B78F1
:105400001720FE2B03D00138FF2B00D1002010BD48
:1054100073B50D0001A904001600FFF7E5FF17287A
:1054200005D0002E04D129002000FEF725F976BD15
:1054300001221021200000F045FE0028F3D0F6E7FD
:10544000014B18607047C0466C2EFF1F37B56B4686
:105450009D1D010004000222280003F0B1FE2B88EC
:10546000B02B0ED12379122B09D12300FA331B78EC
:10547000012B06D10121608800F0E0F801E01B2B30
:10548000F8D037BD10B5054B0421187000F098F81E
:10549000FFF746FDFEF76CFB10BDC046702EFF1FE8
:1054A0000020F0B50BB20F0087B0834234DA274BEF
:1054B000187803F0A5FE051E2BD00378A02B25D16C
:1054C00003AE3100FEF7E2F8041E0BD1B378DB0720
:1054D00024D51F4B06341B68002B03D0310068888D
:1054E00098470400A868002801D003F0F1FE002CC2
:1054F00008D1184A039B1340174A934206D0B37849
:105500001B2B03D00121688800F098F8280003F0D5
:1055100057FF80200002784007B0F0BD0F4B1B689A
:10552000002B10D0310068889847041EDAD07378B9
:10553000002BD7D1B27801A90A704B800C71688812
:10554000FDF7F4FFCEE70624F1E7C046702EFF1FFB
:10555000682EFF1F00FFFF00000112006C2EFF1FCE
:10556000F7B50190FC200D0017001E0003F078FD38
:1055700004001320002C12D0B02320002370089BBD
:10558000F4226770658026710830002B08D019005E
:1055900003F046FF2100019804F00AF80020FEBD48
:1055A000089903F0BDFFF5E710B5041E06D000789A
:1055B000FD2803D803F094FDFF23237010BD0000E5
:1055C0000A1F93B210B504000220032B05D88240B5
:1055D0000020024BD1529B189C7010BD902EFF1FD3
:1055E0000B8870B5043B04000D000220032B0BD880
:1055F0000121200000F04AFD03001420002B03D0FD
:105600002900200000F0DEFB70BD000007B513008C
:10561000034A00920A00012100F02CFC0EBDC04696
:105620004958011107B5019203220092024B0A006A
:10563000122100F047FC0EBDC758011107B56B469B
:1056400001AA11800449D88008780633012802D1C4
:10565000190003F055FE07BD712EFF1F0C4B10B54E
:1056600018700023FF210B4A1380138193819380CC
:10567000094A53801370517293819372D174D3820B
:105680001375517703F034FF00F0FCF910BDC046EC
:10569000A02EFF1F902EFF1F722EFF1FF0B58DB0A2
:1056A0006B46002003910C229B5E834200DBB1E03D
:1056B0005D4B187803F0A4FD051E00D1A5E003782A
:1056C000902B00D09EE006AF01004688380000F025
:1056D00013FA79680400002900D19DE03B88052B6E
:1056E0006FD13B89032B1CD905AC200000F0A2F838
:1056F0006288172A60D83989131D994231D1796897
:10570000237804310291D90738D5607800F08EF9FA
:10571000071E06D0002303712378012B08D0132B1A
:1057200023D0A868002800D179E003F0D1FD76E00D
:105730006288029909A800F0A6F80290380000F0EB
:105740008BF909AA2378387A01920022310000925D
:10575000029A00F012F9380000F064F9029B002B65
:10576000DFD0300000F080F9DBE70378032BD8D1DD
:105770006288029909A800F0D6F8DEE709AF122B7B
:1057800012D13800029900F0B4F8021EE9D127497D
:105790008B88002BC5D08879237801976178009198
:1057A000310000F0EAF8BCE700233A003B80617862
:1057B0003000FFF72BFFB4E71D4B09AA099361786E
:1057C000F6E7042B02D09A1F012AAAD8174A043BF5
:1057D0009B00995A0029A4D0D218907831003A0041
:1057E00000F0ADF800289CD13B88042B03D00121A8
:1057F0003000FFF723FF012C04D1A868002801D056
:1058000003F066FD280003F0DBFD8020039B00020F
:10581000434018000DB0F0BD012800D181E70121FF
:105820003000FFF70BFFEDE7A02EFF1F902EFF1FAC
:10583000010017000B7803704B784370CB788A789F
:105840001B021343438070470A88030002700A88D2
:10585000120A42700A88012A06D14A8882704A8850
:10586000120AC2700420704702208242FBD14A888B
:1058700004309A704A88120ADA708A881A718A8803
:10588000120A5A71EFE710B50400012082420CD9C8
:105890004B780A781B0213432380834206D1CB78CE
:1058A0008A781B0213436380002010BD022BFBD1BA
:1058B000CB788A781B02134363804B790A791B02E9
:1058C0001343A380F0E70B8803700B881B0A437017
:1058D0004B8883704B881B0AC3708B8803718B883D
:1058E0001B0A4371CB888371CB881B0AC3710820C4
:1058F000704703000120082A14D14A780878120260
:1059000002431A80CA788878120202435A804A7980
:105910000879120202439A80CA79887912020243F6
:105920000020DA80704710B504000120022A05D15A
:1059300000204B780A781B021343238010BDF8B572
:10594000060010200F00150003F08AFB0400012060
:10595000002C0ED0A0230C22290023806780201D5C
:10596000002D07D003F05CFD2100300003F020FE85
:105970000020F8BD03F0D4FDF6E7F7B51E00009057
:1059800008AB142017001D78019103F069FB041E79
:1059900012D0A2230370019B47704380099B0571BD
:1059A00046710C220830002B07D0190003F038FD97
:1059B0002100009803F0FCFDF7BD099903F0B0FD4C
:1059C000F6E737B5041E0FD04388002B0CD0002516
:1059D000C1881323007A172201950095FFF7CDFFA8
:1059E000FF2365806372257037BD000010B50C4938
:1059F00004004A88002A09D08B89002B05D000209A
:105A0000CB8A0222834201D010BD012213000A205A
:105A1000434300204032C854C81842800472F3E760
:105A2000722EFF1F0023438003707047094B002133
:105A30001A0010B55C88002C06D01C79844203D172
:105A40000A234B43D01810BD01310A330329F1D189
:105A50000020F8E7722EFF1F10B50400407A03F013
:105A60003FFBFF23637210BD7047043010B580B256
:105A700003F066FB002803D00421494203F050FBE9
:105A800010BD000070B50025104CA0682580A581D0
:105A9000A580A84202D003F01BFCA56000250C4C99
:105AA0000C4B606D1D80230058331D70A84202D03E
:105AB00003F00EFC656500256068002801D003F046
:105AC00007FC013508340A2DF6D170BD382FFF1FB1
:105AD000DC2EFF1F2C2FFF1F70B5041E09D1054DB2
:105AE0002880A881A880A868002802D003F0F0FBD5
:105AF000AC6070BD382FFF1FF0B54B8885B00193A7
:105B0000002343600A7905000F00022A00D07BE0E1
:105B1000CA88032A17D98B685E7819783602DC7830
:105B2000D8790E4399781B7A24021B020C43034355
:105B300053495BBA0B80331D93421ED1042C04D011
:105B4000631F022B0ED9012015E0019A4D4B120163
:105B5000D35A002B06D00198FFF7BEFF4A4A1369BB
:105B6000013313610421B8682E812C80494203F06F
:105B7000D7FA6860002005B0F0BD434D042C06D074
:105B8000631F022B0FD9EB680133EB60DBE7019A4F
:105B90003C4B1201D35A002B05D00198FFF79CFF14
:105BA0002B6901332B61374B30000293019B029A22
:105BB0001B010193002301998C468B52130063440F
:105BC0009C8003939E81FFF750FF039B041E986007
:105BD00016D00421B868494203F0A2FAFA880100FD
